{
  "contractName": "BigVoting",
  "abi": [
    {
      "inputs": [
        {
          "internalType": "address",
          "name": "_electionContractAddress",
          "type": "address"
        }
      ],
      "stateMutability": "nonpayable",
      "type": "constructor"
    },
    {
      "anonymous": false,
      "inputs": [
        {
          "components": [
            {
              "internalType": "int256",
              "name": "id",
              "type": "int256"
            },
            {
              "internalType": "string",
              "name": "firstName",
              "type": "string"
            },
            {
              "internalType": "string",
              "name": "lastName",
              "type": "string"
            },
            {
              "internalType": "address",
              "name": "candidateAddress",
              "type": "address"
            },
            {
              "internalType": "uint64",
              "name": "votesFirstTurn",
              "type": "uint64"
            },
            {
              "internalType": "uint64",
              "name": "votesSecondTurn",
              "type": "uint64"
            }
          ],
          "indexed": false,
          "internalType": "struct Candidate",
          "name": "winner",
          "type": "tuple"
        }
      ],
      "name": "ElectionTerminatingVotingPhaseOneResult",
      "type": "event"
    },
    {
      "anonymous": false,
      "inputs": [
        {
          "indexed": false,
          "internalType": "address",
          "name": "voter",
          "type": "address"
        },
        {
          "indexed": false,
          "internalType": "address",
          "name": "candidate",
          "type": "address"
        },
        {
          "indexed": false,
          "internalType": "uint256",
          "name": "participationPercentage",
          "type": "uint256"
        }
      ],
      "name": "Vote",
      "type": "event"
    },
    {
      "anonymous": false,
      "inputs": [
        {
          "components": [
            {
              "internalType": "int256",
              "name": "id",
              "type": "int256"
            },
            {
              "internalType": "string",
              "name": "firstName",
              "type": "string"
            },
            {
              "internalType": "string",
              "name": "lastName",
              "type": "string"
            },
            {
              "internalType": "address",
              "name": "candidateAddress",
              "type": "address"
            },
            {
              "internalType": "uint64",
              "name": "votesFirstTurn",
              "type": "uint64"
            },
            {
              "internalType": "uint64",
              "name": "votesSecondTurn",
              "type": "uint64"
            }
          ],
          "indexed": false,
          "internalType": "struct Candidate",
          "name": "top",
          "type": "tuple"
        },
        {
          "components": [
            {
              "internalType": "int256",
              "name": "id",
              "type": "int256"
            },
            {
              "internalType": "string",
              "name": "firstName",
              "type": "string"
            },
            {
              "internalType": "string",
              "name": "lastName",
              "type": "string"
            },
            {
              "internalType": "address",
              "name": "candidateAddress",
              "type": "address"
            },
            {
              "internalType": "uint64",
              "name": "votesFirstTurn",
              "type": "uint64"
            },
            {
              "internalType": "uint64",
              "name": "votesSecondTurn",
              "type": "uint64"
            }
          ],
          "indexed": false,
          "internalType": "struct Candidate",
          "name": "underdog",
          "type": "tuple"
        }
      ],
      "name": "VotingPhaseOneResult",
      "type": "event"
    },
    {
      "anonymous": false,
      "inputs": [
        {
          "components": [
            {
              "internalType": "int256",
              "name": "id",
              "type": "int256"
            },
            {
              "internalType": "string",
              "name": "firstName",
              "type": "string"
            },
            {
              "internalType": "string",
              "name": "lastName",
              "type": "string"
            },
            {
              "internalType": "address",
              "name": "candidateAddress",
              "type": "address"
            },
            {
              "internalType": "uint64",
              "name": "votesFirstTurn",
              "type": "uint64"
            },
            {
              "internalType": "uint64",
              "name": "votesSecondTurn",
              "type": "uint64"
            }
          ],
          "indexed": false,
          "internalType": "struct Candidate",
          "name": "winner",
          "type": "tuple"
        }
      ],
      "name": "VotingPhaseTwoResult",
      "type": "event"
    },
    {
      "inputs": [
        {
          "internalType": "address",
          "name": "voter",
          "type": "address"
        },
        {
          "internalType": "address",
          "name": "candidate",
          "type": "address"
        },
        {
          "internalType": "bool",
          "name": "isPhaseOne",
          "type": "bool"
        }
      ],
      "name": "vote",
      "outputs": [
        {
          "internalType": "bool",
          "name": "exceededThreshold",
          "type": "bool"
        }
      ],
      "stateMutability": "nonpayable",
      "type": "function"
    },
    {
      "inputs": [],
      "name": "getCandidateInfo",
      "outputs": [
        {
          "components": [
            {
              "internalType": "int256",
              "name": "id",
              "type": "int256"
            },
            {
              "internalType": "string",
              "name": "firstName",
              "type": "string"
            },
            {
              "internalType": "string",
              "name": "lastName",
              "type": "string"
            },
            {
              "internalType": "address",
              "name": "candidateAddress",
              "type": "address"
            },
            {
              "internalType": "uint64",
              "name": "votesFirstTurn",
              "type": "uint64"
            },
            {
              "internalType": "uint64",
              "name": "votesSecondTurn",
              "type": "uint64"
            }
          ],
          "internalType": "struct Candidate[10]",
          "name": "",
          "type": "tuple[10]"
        }
      ],
      "stateMutability": "view",
      "type": "function",
      "constant": true
    },
    {
      "inputs": [
        {
          "components": [
            {
              "internalType": "int256",
              "name": "id",
              "type": "int256"
            },
            {
              "internalType": "string",
              "name": "firstName",
              "type": "string"
            },
            {
              "internalType": "string",
              "name": "lastName",
              "type": "string"
            },
            {
              "internalType": "address",
              "name": "candidateAddress",
              "type": "address"
            },
            {
              "internalType": "uint64",
              "name": "votesFirstTurn",
              "type": "uint64"
            },
            {
              "internalType": "uint64",
              "name": "votesSecondTurn",
              "type": "uint64"
            }
          ],
          "internalType": "struct Candidate[]",
          "name": "_candidates",
          "type": "tuple[]"
        }
      ],
      "name": "setPostNominationCandidateInfo",
      "outputs": [],
      "stateMutability": "nonpayable",
      "type": "function"
    },
    {
      "inputs": [
        {
          "internalType": "uint256",
          "name": "numberOfParticipants",
          "type": "uint256"
        }
      ],
      "name": "setPostRegistrationNumberOfParticipants",
      "outputs": [],
      "stateMutability": "nonpayable",
      "type": "function"
    },
    {
      "inputs": [
        {
          "internalType": "bool",
          "name": "isPhaseTwo",
          "type": "bool"
        }
      ],
      "name": "getResult",
      "outputs": [
        {
          "components": [
            {
              "internalType": "int256",
              "name": "id",
              "type": "int256"
            },
            {
              "internalType": "string",
              "name": "firstName",
              "type": "string"
            },
            {
              "internalType": "string",
              "name": "lastName",
              "type": "string"
            },
            {
              "internalType": "address",
              "name": "candidateAddress",
              "type": "address"
            },
            {
              "internalType": "uint64",
              "name": "votesFirstTurn",
              "type": "uint64"
            },
            {
              "internalType": "uint64",
              "name": "votesSecondTurn",
              "type": "uint64"
            }
          ],
          "internalType": "struct Candidate[]",
          "name": "",
          "type": "tuple[]"
        },
        {
          "internalType": "enum ElectionFacade.ElectionPhase",
          "name": "nextPhase",
          "type": "uint8"
        }
      ],
      "stateMutability": "nonpayable",
      "type": "function"
    }
  ],
  "bytecode": "0x60806040523480156200001157600080fd5b5060405162003296380380620032968339818101604052810190620000379190620000f4565b80603660006101000a81548173ffffffffffffffffffffffffffffffffffffffff021916908373ffffffffffffffffffffffffffffffffffffffff16021790555060006034600101819055505062000126565b600080fd5b600073ffffffffffffffffffffffffffffffffffffffff82169050919050565b6000620000bc826200008f565b9050919050565b620000ce81620000af565b8114620000da57600080fd5b50565b600081519050620000ee81620000c3565b92915050565b6000602082840312156200010d576200010c6200008a565b5b60006200011d84828501620000dd565b91505092915050565b61316080620001366000396000f3fe608060405234801561001057600080fd5b50600436106100575760003560e01c8063128d87111461005c5780639cdcc0a81461008c578063a48de4d3146100a8578063af1c9b55146100c6578063fb5875b0146100e2575b600080fd5b61007660048036038101906100719190612253565b610113565b60405161008391906122b5565b60405180910390f35b6100a660048036038101906100a19190612306565b6105c0565b005b6100b061065d565b6040516100bd919061255d565b60405180910390f35b6100e060048036038101906100db91906128d4565b610927565b005b6100fc60048036038101906100f7919061291d565b610cce565b60405161010a929190612a6f565b60405180910390f35b6000603660009054906101000a900473ffffffffffffffffffffffffffffffffffffffff1673ffffffffffffffffffffffffffffffffffffffff163373ffffffffffffffffffffffffffffffffffffffff16146101a5576040517f08c379a000000000000000000000000000000000000000000000000000000000815260040161019c90612b48565b60405180910390fd5b60001515603360008673ffffffffffffffffffffffffffffffffffffffff1673ffffffffffffffffffffffffffffffffffffffff168152602001908152602001600020836101f45760016101f7565b60005b60ff166002811061020b5761020a612b68565b5b602091828204019190069054906101000a900460ff16151514610263576040517f08c379a000000000000000000000000000000000000000000000000000000000815260040161025a90612c09565b60405180910390fd5b81806103475750600080600a811061027e5761027d612b68565b5b6005020160030160009054906101000a900473ffffffffffffffffffffffffffffffffffffffff1673ffffffffffffffffffffffffffffffffffffffff168373ffffffffffffffffffffffffffffffffffffffff161480610346575060006001600a81106102ef576102ee612b68565b5b6005020160030160009054906101000a900473ffffffffffffffffffffffffffffffffffffffff1673ffffffffffffffffffffffffffffffffffffffff168373ffffffffffffffffffffffffffffffffffffffff16145b5b610386576040517f08c379a000000000000000000000000000000000000000000000000000000000815260040161037d90612c9b565b60405180910390fd5b811561041e57603260008473ffffffffffffffffffffffffffffffffffffffff1673ffffffffffffffffffffffffffffffffffffffff168152602001908152602001600020600301601481819054906101000a900467ffffffffffffffff16809291906103f290612cea565b91906101000a81548167ffffffffffffffff021916908367ffffffffffffffff160217905550506104ac565b603260008473ffffffffffffffffffffffffffffffffffffffff1673ffffffffffffffffffffffffffffffffffffffff168152602001908152602001600020600401600081819054906101000a900467ffffffffffffffff168092919061048490612cea565b91906101000a81548167ffffffffffffffff021916908367ffffffffffffffff160217905550505b6001603360008673ffffffffffffffffffffffffffffffffffffffff1673ffffffffffffffffffffffffffffffffffffffff168152602001908152602001600020836104f95760016104fc565b60005b60ff16600281106105105761050f612b68565b5b602091828204019190066101000a81548160ff0219169083151502179055507f66a9138482c99e9baf08860110ef332cc0c23b4a199a53593d8db0fc8f96fbfc8484603460000154606460346001015461056a9190612d1a565b6105749190612da3565b60405161058393929190612df2565b60405180910390a16000606460346000015460506105a19190612d1a565b6105ab9190612da3565b90508060346001015410159150509392505050565b603660009054906101000a900473ffffffffffffffffffffffffffffffffffffffff1673ffffffffffffffffffffffffffffffffffffffff163373ffffffffffffffffffffffffffffffffffffffff1614610650576040517f08c379a000000000000000000000000000000000000000000000000000000000815260040161064790612b48565b60405180910390fd5b8060346000018190555050565b610665611feb565b603660009054906101000a900473ffffffffffffffffffffffffffffffffffffffff1673ffffffffffffffffffffffffffffffffffffffff163373ffffffffffffffffffffffffffffffffffffffff16146106f5576040517f08c379a00000000000000000000000000000000000000000000000000000000081526004016106ec90612b48565b60405180910390fd5b6000600a80602002604051908101604052809291906000905b8282101561091e578382600502016040518060c00160405290816000820154815260200160018201805461074190612e58565b80601f016020809104026020016040519081016040528092919081815260200182805461076d90612e58565b80156107ba5780601f1061078f576101008083540402835291602001916107ba565b820191906000526020600020905b81548152906001019060200180831161079d57829003601f168201915b505050505081526020016002820180546107d390612e58565b80601f01602080910402602001604051908101604052809291908181526020018280546107ff90612e58565b801561084c5780601f106108215761010080835404028352916020019161084c565b820191906000526020600020905b81548152906001019060200180831161082f57829003601f168201915b505050505081526020016003820160009054906101000a900473ffffffffffffffffffffffffffffffffffffffff1673ffffffffffffffffffffffffffffffffffffffff1673ffffffffffffffffffffffffffffffffffffffff1681526020016003820160149054906101000a900467ffffffffffffffff1667ffffffffffffffff1667ffffffffffffffff1681526020016004820160009054906101000a900467ffffffffffffffff1667ffffffffffffffff1667ffffffffffffffff16815250508152602001906001019061070e565b50505050905090565b603660009054906101000a900473ffffffffffffffffffffffffffffffffffffffff1673ffffffffffffffffffffffffffffffffffffffff163373ffffffffffffffffffffffffffffffffffffffff16146109b7576040517f08c379a00000000000000000000000000000000000000000000000000000000081526004016109ae90612b48565b60405180910390fd5b60005b600a811015610cca578151811015610aec578181815181106109df576109de612b68565b5b6020026020010151600082600a81106109fb576109fa612b68565b5b60050201600082015181600001556020820151816001019080519060200190610a25929190612019565b506040820151816002019080519060200190610a42929190612019565b5060608201518160030160006101000a81548173ffffffffffffffffffffffffffffffffffffffff021916908373ffffffffffffffffffffffffffffffffffffffff16021790555060808201518160030160146101000a81548167ffffffffffffffff021916908367ffffffffffffffff16021790555060a08201518160040160006101000a81548167ffffffffffffffff021916908367ffffffffffffffff1602179055509050505b600081600a8110610b0057610aff612b68565b5b60050201603260008084600a8110610b1b57610b1a612b68565b5b6005020160030160009054906101000a900473ffffffffffffffffffffffffffffffffffffffff1673ffffffffffffffffffffffffffffffffffffffff1673ffffffffffffffffffffffffffffffffffffffff168152602001908152602001600020600082015481600001556001820181600101908054610b9b90612e58565b610ba692919061209f565b506002820181600201908054610bbb90612e58565b610bc692919061209f565b506003820160009054906101000a900473ffffffffffffffffffffffffffffffffffffffff168160030160006101000a81548173ffffffffffffffffffffffffffffffffffffffff021916908373ffffffffffffffffffffffffffffffffffffffff1602179055506003820160149054906101000a900467ffffffffffffffff168160030160146101000a81548167ffffffffffffffff021916908367ffffffffffffffff1602179055506004820160009054906101000a900467ffffffffffffffff168160040160006101000a81548167ffffffffffffffff021916908367ffffffffffffffff1602179055509050508080610cc290612e89565b9150506109ba565b5050565b60606000603660009054906101000a900473ffffffffffffffffffffffffffffffffffffffff1673ffffffffffffffffffffffffffffffffffffffff163373ffffffffffffffffffffffffffffffffffffffff1614610d62576040517f08c379a0000000000000000000000000000000000000000000000000000000008152600401610d5990612b48565b60405180910390fd5b6001600a11610da6576040517f08c379a0000000000000000000000000000000000000000000000000000000008152600401610d9d90612f69565b60405180910390fd5b8215610db957610db4610dcb565b610dc2565b610dc161164b565b5b91509150915091565b606060006002600a14610e13576040517f08c379a0000000000000000000000000000000000000000000000000000000008152600401610e0a90613021565b60405180910390fd5b6000600267ffffffffffffffff811115610e3057610e2f612584565b5b604051908082528060200260200182016040528015610e6957816020015b610e5661212c565b815260200190600190039081610e4e5790505b50905060006001600a8110610e8157610e80612b68565b5b6005020160040160009054906101000a900467ffffffffffffffff1667ffffffffffffffff16600080600a8110610ebb57610eba612b68565b5b6005020160040160009054906101000a900467ffffffffffffffff1667ffffffffffffffff16111561111657600080600a8110610efb57610efa612b68565b5b600502016040518060c001604052908160008201548152602001600182018054610f2490612e58565b80601f0160208091040260200160405190810160405280929190818152602001828054610f5090612e58565b8015610f9d5780601f10610f7257610100808354040283529160200191610f9d565b820191906000526020600020905b815481529060010190602001808311610f8057829003601f168201915b50505050508152602001600282018054610fb690612e58565b80601f0160208091040260200160405190810160405280929190818152602001828054610fe290612e58565b801561102f5780601f106110045761010080835404028352916020019161102f565b820191906000526020600020905b81548152906001019060200180831161101257829003601f168201915b505050505081526020016003820160009054906101000a900473ffffffffffffffffffffffffffffffffffffffff1673ffffffffffffffffffffffffffffffffffffffff1673ffffffffffffffffffffffffffffffffffffffff1681526020016003820160149054906101000a900467ffffffffffffffff1667ffffffffffffffff1667ffffffffffffffff1681526020016004820160009054906101000a900467ffffffffffffffff1667ffffffffffffffff1667ffffffffffffffff16815250508160008151811061110657611105612b68565b5b60200260200101819052506115ed565b60006001600a811061112b5761112a612b68565b5b6005020160040160009054906101000a900467ffffffffffffffff1667ffffffffffffffff16600080600a811061116557611164612b68565b5b6005020160040160009054906101000a900467ffffffffffffffff1667ffffffffffffffff1610156113c15760006001600a81106111a6576111a5612b68565b5b600502016040518060c0016040529081600082015481526020016001820180546111cf90612e58565b80601f01602080910402602001604051908101604052809291908181526020018280546111fb90612e58565b80156112485780601f1061121d57610100808354040283529160200191611248565b820191906000526020600020905b81548152906001019060200180831161122b57829003601f168201915b5050505050815260200160028201805461126190612e58565b80601f016020809104026020016040519081016040528092919081815260200182805461128d90612e58565b80156112da5780601f106112af576101008083540402835291602001916112da565b820191906000526020600020905b8154815290600101906020018083116112bd57829003601f168201915b505050505081526020016003820160009054906101000a900473ffffffffffffffffffffffffffffffffffffffff1673ffffffffffffffffffffffffffffffffffffffff1673ffffffffffffffffffffffffffffffffffffffff1681526020016003820160149054906101000a900467ffffffffffffffff1667ffffffffffffffff1667ffffffffffffffff1681526020016004820160009054906101000a900467ffffffffffffffff1667ffffffffffffffff1667ffffffffffffffff1681525050816000815181106113b1576113b0612b68565b5b60200260200101819052506115ec565b600080600a81106113d5576113d4612b68565b5b600502016040518060c0016040529081600082015481526020016001820180546113fe90612e58565b80601f016020809104026020016040519081016040528092919081815260200182805461142a90612e58565b80156114775780601f1061144c57610100808354040283529160200191611477565b820191906000526020600020905b81548152906001019060200180831161145a57829003601f168201915b5050505050815260200160028201805461149090612e58565b80601f01602080910402602001604051908101604052809291908181526020018280546114bc90612e58565b80156115095780601f106114de57610100808354040283529160200191611509565b820191906000526020600020905b8154815290600101906020018083116114ec57829003601f168201915b505050505081526020016003820160009054906101000a900473ffffffffffffffffffffffffffffffffffffffff1673ffffffffffffffffffffffffffffffffffffffff1673ffffffffffffffffffffffffffffffffffffffff1681526020016003820160149054906101000a900467ffffffffffffffff1667ffffffffffffffff1667ffffffffffffffff1681526020016004820160009054906101000a900467ffffffffffffffff1667ffffffffffffffff1667ffffffffffffffff1681525050816000815181106115e0576115df612b68565b5b60200260200101819052505b5b7f58a2bc26f88dca23ba04e3303a7dbc04c739c9aa9a5ba4054c98021ca95ab5b18160008151811061162257611621612b68565b5b602002602001015160405161163791906130d1565b60405180910390a180600392509250509091565b6060600080600267ffffffffffffffff81111561166b5761166a612584565b5b6040519080825280602002602001820160405280156116a457816020015b61169161212c565b8152602001906001900390816116895790505b50905060005b600a81101561199557816000815181106116c7576116c6612b68565b5b60200260200101516080015167ffffffffffffffff16600082600a81106116f1576116f0612b68565b5b6005020160030160149054906101000a900467ffffffffffffffff1667ffffffffffffffff161061198257816000815181106117305761172f612b68565b5b60200260200101518260018151811061174c5761174b612b68565b5b6020026020010181905250600081600a811061176b5761176a612b68565b5b600502016040518060c00160405290816000820154815260200160018201805461179490612e58565b80601f01602080910402602001604051908101604052809291908181526020018280546117c090612e58565b801561180d5780601f106117e25761010080835404028352916020019161180d565b820191906000526020600020905b8154815290600101906020018083116117f057829003601f168201915b5050505050815260200160028201805461182690612e58565b80601f016020809104026020016040519081016040528092919081815260200182805461185290612e58565b801561189f5780601f106118745761010080835404028352916020019161189f565b820191906000526020600020905b81548152906001019060200180831161188257829003601f168201915b505050505081526020016003820160009054906101000a900473ffffffffffffffffffffffffffffffffffffffff1673ffffffffffffffffffffffffffffffffffffffff1673ffffffffffffffffffffffffffffffffffffffff1681526020016003820160149054906101000a900467ffffffffffffffff1667ffffffffffffffff1667ffffffffffffffff1681526020016004820160009054906101000a900467ffffffffffffffff1667ffffffffffffffff1667ffffffffffffffff16815250508260008151811061197657611975612b68565b5b60200260200101819052505b808061198d90612e89565b9150506116aa565b50806000815181106119aa576119a9612b68565b5b6020026020010151600080600a81106119c6576119c5612b68565b5b600502016000820151816000015560208201518160010190805190602001906119f0929190612019565b506040820151816002019080519060200190611a0d929190612019565b5060608201518160030160006101000a81548173ffffffffffffffffffffffffffffffffffffffff021916908373ffffffffffffffffffffffffffffffffffffffff16021790555060808201518160030160146101000a81548167ffffffffffffffff021916908367ffffffffffffffff16021790555060a08201518160040160006101000a81548167ffffffffffffffff021916908367ffffffffffffffff16021790555090505080600181518110611aca57611ac9612b68565b5b602002602001015160006001600a8110611ae757611ae6612b68565b5b60050201600082015181600001556020820151816001019080519060200190611b11929190612019565b506040820151816002019080519060200190611b2e929190612019565b5060608201518160030160006101000a81548173ffffffffffffffffffffffffffffffffffffffff021916908373ffffffffffffffffffffffffffffffffffffffff16021790555060808201518160030160146101000a81548167ffffffffffffffff021916908367ffffffffffffffff16021790555060a08201518160040160006101000a81548167ffffffffffffffff021916908367ffffffffffffffff160217905550905050600080600a8110611beb57611bea612b68565b5b6005020160326000806000600a8110611c0757611c06612b68565b5b6005020160030160009054906101000a900473ffffffffffffffffffffffffffffffffffffffff1673ffffffffffffffffffffffffffffffffffffffff1673ffffffffffffffffffffffffffffffffffffffff168152602001908152602001600020600082015481600001556001820181600101908054611c8790612e58565b611c9292919061209f565b506002820181600201908054611ca790612e58565b611cb292919061209f565b506003820160009054906101000a900473ffffffffffffffffffffffffffffffffffffffff168160030160006101000a81548173ffffffffffffffffffffffffffffffffffffffff021916908373ffffffffffffffffffffffffffffffffffffffff1602179055506003820160149054906101000a900467ffffffffffffffff168160030160146101000a81548167ffffffffffffffff021916908367ffffffffffffffff1602179055506004820160009054906101000a900467ffffffffffffffff168160040160006101000a81548167ffffffffffffffff021916908367ffffffffffffffff16021790555090505060006001600a8110611db857611db7612b68565b5b6005020160326000806001600a8110611dd457611dd3612b68565b5b6005020160030160009054906101000a900473ffffffffffffffffffffffffffffffffffffffff1673ffffffffffffffffffffffffffffffffffffffff1673ffffffffffffffffffffffffffffffffffffffff168152602001908152602001600020600082015481600001556001820181600101908054611e5490612e58565b611e5f92919061209f565b506002820181600201908054611e7490612e58565b611e7f92919061209f565b506003820160009054906101000a900473ffffffffffffffffffffffffffffffffffffffff168160030160006101000a81548173ffffffffffffffffffffffffffffffffffffffff021916908373ffffffffffffffffffffffffffffffffffffffff1602179055506003820160149054906101000a900467ffffffffffffffff168160030160146101000a81548167ffffffffffffffff021916908367ffffffffffffffff1602179055506004820160009054906101000a900467ffffffffffffffff168160040160006101000a81548167ffffffffffffffff021916908367ffffffffffffffff1602179055509050507ff18f5f633d041f86ac4e1138cb3c6e14671572bb84cd8149faba385f62e495c981600081518110611fa557611fa4612b68565b5b602002602001015182600181518110611fc157611fc0612b68565b5b6020026020010151604051611fd79291906130f3565b60405180910390a180600292509250509091565b604051806101400160405280600a905b61200361212c565b815260200190600190039081611ffb5790505090565b82805461202590612e58565b90600052602060002090601f016020900481019282612047576000855561208e565b82601f1061206057805160ff191683800117855561208e565b8280016001018555821561208e579182015b8281111561208d578251825591602001919060010190612072565b5b50905061209b919061218c565b5090565b8280546120ab90612e58565b90600052602060002090601f0160209004810192826120cd576000855561211b565b82601f106120de578054855561211b565b8280016001018555821561211b57600052602060002091601f016020900482015b8281111561211a5782548255916001019190600101906120ff565b5b509050612128919061218c565b5090565b6040518060c00160405280600081526020016060815260200160608152602001600073ffffffffffffffffffffffffffffffffffffffff168152602001600067ffffffffffffffff168152602001600067ffffffffffffffff1681525090565b5b808211156121a557600081600090555060010161218d565b5090565b6000604051905090565b600080fd5b600080fd5b600073ffffffffffffffffffffffffffffffffffffffff82169050919050565b60006121e8826121bd565b9050919050565b6121f8816121dd565b811461220357600080fd5b50565b600081359050612215816121ef565b92915050565b60008115159050919050565b6122308161221b565b811461223b57600080fd5b50565b60008135905061224d81612227565b92915050565b60008060006060848603121561226c5761226b6121b3565b5b600061227a86828701612206565b935050602061228b86828701612206565b925050604061229c8682870161223e565b9150509250925092565b6122af8161221b565b82525050565b60006020820190506122ca60008301846122a6565b92915050565b6000819050919050565b6122e3816122d0565b81146122ee57600080fd5b50565b600081359050612300816122da565b92915050565b60006020828403121561231c5761231b6121b3565b5b600061232a848285016122f1565b91505092915050565b6000600a9050919050565b600081905092915050565b6000819050919050565b6000819050919050565b61236681612353565b82525050565b600081519050919050565b600082825260208201905092915050565b60005b838110156123a657808201518184015260208101905061238b565b838111156123b5576000848401525b50505050565b6000601f19601f8301169050919050565b60006123d78261236c565b6123e18185612377565b93506123f1818560208601612388565b6123fa816123bb565b840191505092915050565b61240e816121dd565b82525050565b600067ffffffffffffffff82169050919050565b61243181612414565b82525050565b600060c08301600083015161244f600086018261235d565b506020830151848203602086015261246782826123cc565b9150506040830151848203604086015261248182826123cc565b91505060608301516124966060860182612405565b5060808301516124a96080860182612428565b5060a08301516124bc60a0860182612428565b508091505092915050565b60006124d38383612437565b905092915050565b6000602082019050919050565b60006124f382612333565b6124fd818561233e565b93508360208202850161250f85612349565b8060005b8581101561254b578484038952815161252c85826124c7565b9450612537836124db565b925060208a01995050600181019050612513565b50829750879550505050505092915050565b6000602082019050818103600083015261257781846124e8565b905092915050565b600080fd5b7f4e487b7100000000000000000000000000000000000000000000000000000000600052604160045260246000fd5b6125bc826123bb565b810181811067ffffffffffffffff821117156125db576125da612584565b5b80604052505050565b60006125ee6121a9565b90506125fa82826125b3565b919050565b600067ffffffffffffffff82111561261a57612619612584565b5b602082029050602081019050919050565b600080fd5b600080fd5b600080fd5b61264381612353565b811461264e57600080fd5b50565b6000813590506126608161263a565b92915050565b600080fd5b600067ffffffffffffffff82111561268657612685612584565b5b61268f826123bb565b9050602081019050919050565b82818337600083830152505050565b60006126be6126b98461266b565b6125e4565b9050828152602081018484840111156126da576126d9612666565b5b6126e584828561269c565b509392505050565b600082601f8301126127025761270161257f565b5b81356127128482602086016126ab565b91505092915050565b61272481612414565b811461272f57600080fd5b50565b6000813590506127418161271b565b92915050565b600060c0828403121561275d5761275c612630565b5b61276760c06125e4565b9050600061277784828501612651565b600083015250602082013567ffffffffffffffff81111561279b5761279a612635565b5b6127a7848285016126ed565b602083015250604082013567ffffffffffffffff8111156127cb576127ca612635565b5b6127d7848285016126ed565b60408301525060606127eb84828501612206565b60608301525060806127ff84828501612732565b60808301525060a061281384828501612732565b60a08301525092915050565b600061283261282d846125ff565b6125e4565b905080838252602082019050602084028301858111156128555761285461262b565b5b835b8181101561289c57803567ffffffffffffffff81111561287a5761287961257f565b5b8086016128878982612747565b85526020850194505050602081019050612857565b5050509392505050565b600082601f8301126128bb576128ba61257f565b5b81356128cb84826020860161281f565b91505092915050565b6000602082840312156128ea576128e96121b3565b5b600082013567ffffffffffffffff811115612908576129076121b8565b5b612914848285016128a6565b91505092915050565b600060208284031215612933576129326121b3565b5b60006129418482850161223e565b91505092915050565b600081519050919050565b600082825260208201905092915050565b6000819050602082019050919050565b6000602082019050919050565b600061298e8261294a565b6129988185612955565b9350836020820285016129aa85612966565b8060005b858110156129e657848403895281516129c785826124c7565b94506129d283612976565b925060208a019950506001810190506129ae565b50829750879550505050505092915050565b7f4e487b7100000000000000000000000000000000000000000000000000000000600052602160045260246000fd5b60048110612a3857612a376129f8565b5b50565b6000819050612a4982612a27565b919050565b6000612a5982612a3b565b9050919050565b612a6981612a4e565b82525050565b60006040820190508181036000830152612a898185612983565b9050612a986020830184612a60565b9392505050565b600082825260208201905092915050565b7f4f7065726174696f6e2064656e6965642e204f6e6c7920656c656374696f6e2060008201527f736d61727420636f6e74726163742063616e2063616c6c20746869732066756e60208201527f6374696f6e2e0000000000000000000000000000000000000000000000000000604082015250565b6000612b32604683612a9f565b9150612b3d82612ab0565b606082019050919050565b60006020820190508181036000830152612b6181612b25565b9050919050565b7f4e487b7100000000000000000000000000000000000000000000000000000000600052603260045260246000fd5b7f4f7065726174696f6e2064656e6965642e205061727469636970616e7420686160008201527f7320616c72656164792063617374206120766f74652e00000000000000000000602082015250565b6000612bf3603683612a9f565b9150612bfe82612b97565b604082019050919050565b60006020820190508181036000830152612c2281612be6565b9050919050565b7f4f7065726174696f6e2064656e6965642e2050686173652074776f20766f746560008201527f20696e76616c69642063616e6469646174652e00000000000000000000000000602082015250565b6000612c85603383612a9f565b9150612c9082612c29565b604082019050919050565b60006020820190508181036000830152612cb481612c78565b9050919050565b7f4e487b7100000000000000000000000000000000000000000000000000000000600052601160045260246000fd5b6000612cf582612414565b915067ffffffffffffffff8203612d0f57612d0e612cbb565b5b600182019050919050565b6000612d25826122d0565b9150612d30836122d0565b9250817fffffffffffffffffffffffffffffffffffffffffffffffffffffffffffffffff0483118215151615612d6957612d68612cbb565b5b828202905092915050565b7f4e487b7100000000000000000000000000000000000000000000000000000000600052601260045260246000fd5b6000612dae826122d0565b9150612db9836122d0565b925082612dc957612dc8612d74565b5b828204905092915050565b612ddd816121dd565b82525050565b612dec816122d0565b82525050565b6000606082019050612e076000830186612dd4565b612e146020830185612dd4565b612e216040830184612de3565b949350505050565b7f4e487b7100000000000000000000000000000000000000000000000000000000600052602260045260246000fd5b60006002820490506001821680612e7057607f821691505b602082108103612e8357612e82612e29565b5b50919050565b6000612e94826122d0565b91507fffffffffffffffffffffffffffffffffffffffffffffffffffffffffffffffff8203612ec657612ec5612cbb565b5b600182019050919050565b7f4f7065726174696f6e2064656e6965642e204e756d626572206f662063616e6460008201527f69646174657320696e20656c656374696f6e206d75737420657863656564203160208201527f2e00000000000000000000000000000000000000000000000000000000000000604082015250565b6000612f53604183612a9f565b9150612f5e82612ed1565b606082019050919050565b60006020820190508181036000830152612f8281612f46565b9050919050565b7f4f7065726174696f6e2064656e6965642e204f6e6c792074776f2063616e646960008201527f646174657320616c6c6f77656420696e20766f74696e6720706861736520747760208201527f6f00000000000000000000000000000000000000000000000000000000000000604082015250565b600061300b604183612a9f565b915061301682612f89565b606082019050919050565b6000602082019050818103600083015261303a81612ffe565b9050919050565b600060c083016000830151613059600086018261235d565b506020830151848203602086015261307182826123cc565b9150506040830151848203604086015261308b82826123cc565b91505060608301516130a06060860182612405565b5060808301516130b36080860182612428565b5060a08301516130c660a0860182612428565b508091505092915050565b600060208201905081810360008301526130eb8184613041565b905092915050565b6000604082019050818103600083015261310d8185613041565b905081810360208301526131218184613041565b9050939250505056fea2646970667358221220bbfcdcb548d7264cffba192c2c9ce4ea441d86cfdd46aee8261f9b7c2473161664736f6c634300080d0033",
  "immutableReferences": {},
  "source": "// SPDX-License-Identifier: MIT \npragma solidity ^0.8.13;\n\nimport { Candidate } from \"./ElectionLibrary.sol\";\nimport \"./election.sol\";\n\ncontract BigVoting {\n  uint private constant VOTING_PHASE_PARTICIPATION_THRESHOLD_PERCENTAGE = 80;\n\n  Candidate[10] private candidateInfo;\n  mapping(address => Candidate) private candidateMap;\n  mapping(address => bool[2]) private hasVoted;\n  VotingParticipationInfo private votingParticipationInfo;\n  address private electionContractAddress;\n\n  /// @dev This emits when a participant casts a vote. Parameter participationPercentage is a\n  /// value between 0-100 representing the new percentage of participants that have cast a\n  /// vote.\n  event Vote(address voter, address candidate, uint participationPercentage);\n\n  modifier onlyElectionContractCanCall() {\n    require(msg.sender == electionContractAddress, \"Operation denied. Only election smart contract can call this function.\");\n    _;\n  }\n\n  struct VotingParticipationInfo {\n    uint numberOfParticipants;\n    uint participationCount;\n  }\n\n  constructor(address _electionContractAddress) {\n    electionContractAddress = _electionContractAddress;\n    votingParticipationInfo.participationCount = 0;\n  }\n\n  function vote(address voter, address candidate, bool isPhaseOne) external onlyElectionContractCanCall returns (bool exceededThreshold) {\n    require(hasVoted[voter][isPhaseOne ? 0 : 1] == false, \"Operation denied. Participant has already cast a vote.\");\n    require(\n      isPhaseOne || (candidate == candidateInfo[0].candidateAddress || candidate == candidateInfo[1].candidateAddress), \n      \"Operation denied. Phase two vote invalid candidate.\"\n    );\n\n    if (isPhaseOne)\n      candidateMap[candidate].votesFirstTurn++;\n    else\n      candidateMap[candidate].votesSecondTurn++;\n\n    hasVoted[voter][isPhaseOne ? 0 : 1] = true;\n\n    emit Vote(\n      voter, \n      candidate, \n      (votingParticipationInfo.participationCount * 100) / votingParticipationInfo.numberOfParticipants\n    );\n\n    uint thresholdNumberOfParticipants = \n      (VOTING_PHASE_PARTICIPATION_THRESHOLD_PERCENTAGE * votingParticipationInfo.numberOfParticipants) / 100;\n\n    return votingParticipationInfo.participationCount >= thresholdNumberOfParticipants;\n  }\n\n  function getCandidateInfo() external view onlyElectionContractCanCall returns (Candidate[10] memory) {\n    return candidateInfo;\n  }\n\n  function setPostNominationCandidateInfo(Candidate[] memory _candidates) external onlyElectionContractCanCall \n  {\n    for (uint i = 0; i < candidateInfo.length; i++) {\n      if (i < _candidates.length)\n        candidateInfo[i] = _candidates[i];\n      candidateMap[candidateInfo[i].candidateAddress] = candidateInfo[i];\n    }\n  }\n\n  function setPostRegistrationNumberOfParticipants(uint numberOfParticipants) external onlyElectionContractCanCall {\n    votingParticipationInfo.numberOfParticipants = numberOfParticipants;\n  }\n\n  // Result\n    function getResult(bool isPhaseTwo) external onlyElectionContractCanCall returns (Candidate[] memory, ElectionFacade.ElectionPhase nextPhase) {\n    require(candidateInfo.length > 1, \"Operation denied. Number of candidates in election must exceed 1.\");\n\n    return !isPhaseTwo ? getPhaseOneResult() : getPhaseTwoResult();\n  }\n\n  function getPhaseOneResult() private returns (Candidate[] memory, ElectionFacade.ElectionPhase nextPhase) {\n    Candidate[] memory results = new Candidate[](2);\n\n    for (uint i = 0; i < candidateInfo.length; i++) {\n      if (candidateInfo[i].votesFirstTurn >= results[0].votesFirstTurn) {\n        results[1] = results[0];\n        results[0] = candidateInfo[i];\n      }\n    }\n    candidateInfo[0] = results[0];\n    candidateInfo[1] = results[1];\n    candidateMap[candidateInfo[0].candidateAddress] = candidateInfo[0];\n    candidateMap[candidateInfo[1].candidateAddress] = candidateInfo[1];\n\n    emit VotingPhaseOneResult(results[0], results[1]);\n    return (results, ElectionFacade.ElectionPhase.VotingPhaseTwo);\n  }\n\n  function getPhaseTwoResult() private returns (Candidate[] memory, ElectionFacade.ElectionPhase nextPhase) {\n    require(candidateInfo.length == 2, \"Operation denied. Only two candidates allowed in voting phase two\");\n\n    Candidate[] memory results = new Candidate[](2);\n    if (candidateInfo[0].votesSecondTurn > candidateInfo[1].votesSecondTurn) {\n      results[0] = candidateInfo[0];\n    } else if (candidateInfo[0].votesSecondTurn < candidateInfo[1].votesSecondTurn) {\n      results[0] = candidateInfo[1];\n    } else {\n      // random choice mechanism...\n      // let's say candidate votingResults[0] is selected\n      results[0] = candidateInfo[0];\n    }\n\n    // candidateInfo = results;\n\n    emit VotingPhaseTwoResult(results[0]);\n    return (results, ElectionFacade.ElectionPhase.PostElection);\n  }\n\n  // events\n\n  /// @dev This emits when the results of voting phase one are the two top voted candidates and neither of these\n  /// candidates: (a) Exceed the majority threshold, and (b) have the same quantity of votes\n  event VotingPhaseOneResult(Candidate top, Candidate underdog);\n\n  /// @dev This emits when one of the two top voted candidates exceeds the majority threshold\n  event ElectionTerminatingVotingPhaseOneResult(Candidate winner);\n\n  /// @dev This emits when one of the two candidates in voting phase two has the majority vote or a tie occurs.\n  /// Note: When a tie occurs, a random selection mechanism is employed to independently determine the winner.\n  event VotingPhaseTwoResult(Candidate winner);\n}",
  "sourcePath": "/home/ariphael/dapp_project/contracts/big.sol",
  "compiler": {
    "name": "solc",
    "version": "0.8.13+commit.abaa5c0e.Emscripten.clang"
  },
  "schemaVersion": "3.4.16",
  "updatedAt": "2024-01-30T05:27:17.464Z",
  "networkType": "ethereum",
  "devdoc": {
    "events": {
      "ElectionTerminatingVotingPhaseOneResult((int256,string,string,address,uint64,uint64))": {
        "details": "This emits when one of the two top voted candidates exceeds the majority threshold"
      },
      "Vote(address,address,uint256)": {
        "details": "This emits when a participant casts a vote. Parameter participationPercentage is a value between 0-100 representing the new percentage of participants that have cast a vote."
      },
      "VotingPhaseOneResult((int256,string,string,address,uint64,uint64),(int256,string,string,address,uint64,uint64))": {
        "details": "This emits when the results of voting phase one are the two top voted candidates and neither of these candidates: (a) Exceed the majority threshold, and (b) have the same quantity of votes"
      },
      "VotingPhaseTwoResult((int256,string,string,address,uint64,uint64))": {
        "details": "This emits when one of the two candidates in voting phase two has the majority vote or a tie occurs. Note: When a tie occurs, a random selection mechanism is employed to independently determine the winner."
      }
    },
    "kind": "dev",
    "methods": {},
    "version": 1
  },
  "userdoc": {
    "kind": "user",
    "methods": {},
    "version": 1
  }
}