{
  "contractName": "ElectionFacade",
  "abi": [
    {
      "inputs": [],
      "stateMutability": "nonpayable",
      "type": "constructor"
    },
    {
      "anonymous": false,
      "inputs": [],
      "name": "EndPreElectionPhase",
      "type": "event"
    },
    {
      "inputs": [
        {
          "internalType": "address",
          "name": "_votingContract",
          "type": "address"
        },
        {
          "internalType": "address",
          "name": "_registrationContract",
          "type": "address"
        },
        {
          "internalType": "address",
          "name": "_nominationContract",
          "type": "address"
        }
      ],
      "name": "setContractAddresses",
      "outputs": [],
      "stateMutability": "nonpayable",
      "type": "function"
    },
    {
      "inputs": [],
      "name": "register",
      "outputs": [],
      "stateMutability": "nonpayable",
      "type": "function"
    },
    {
      "inputs": [
        {
          "internalType": "string",
          "name": "firstName",
          "type": "string"
        },
        {
          "internalType": "string",
          "name": "lastName",
          "type": "string"
        }
      ],
      "name": "nominate",
      "outputs": [],
      "stateMutability": "nonpayable",
      "type": "function"
    },
    {
      "inputs": [
        {
          "internalType": "address",
          "name": "nominee",
          "type": "address"
        }
      ],
      "name": "endorse",
      "outputs": [],
      "stateMutability": "nonpayable",
      "type": "function"
    },
    {
      "inputs": [],
      "name": "endPreElectionPhase",
      "outputs": [],
      "stateMutability": "nonpayable",
      "type": "function"
    },
    {
      "inputs": [
        {
          "internalType": "address",
          "name": "candidate",
          "type": "address"
        }
      ],
      "name": "vote",
      "outputs": [],
      "stateMutability": "nonpayable",
      "type": "function"
    },
    {
      "inputs": [],
      "name": "getResult",
      "outputs": [
        {
          "components": [
            {
              "internalType": "int256",
              "name": "id",
              "type": "int256"
            },
            {
              "internalType": "string",
              "name": "firstName",
              "type": "string"
            },
            {
              "internalType": "string",
              "name": "lastName",
              "type": "string"
            },
            {
              "internalType": "address",
              "name": "candidateAddress",
              "type": "address"
            },
            {
              "internalType": "uint64",
              "name": "votesFirstTurn",
              "type": "uint64"
            },
            {
              "internalType": "uint64",
              "name": "votesSecondTurn",
              "type": "uint64"
            }
          ],
          "internalType": "struct Candidate",
          "name": "",
          "type": "tuple"
        }
      ],
      "stateMutability": "view",
      "type": "function",
      "constant": true
    }
  ],
  "bytecode": "0x608060405234801561001057600080fd5b5033600360006101000a81548173ffffffffffffffffffffffffffffffffffffffff021916908373ffffffffffffffffffffffffffffffffffffffff1602179055506000600360146101000a81548160ff0219169083600381111561007857610077610082565b5b02179055506100b1565b7f4e487b7100000000000000000000000000000000000000000000000000000000600052602160045260246000fd5b612218806100c06000396000f3fe608060405234801561001057600080fd5b506004361061007d5760003560e01c80636ea5511f1161005b5780636ea5511f146100b25780638ab63380146100ce578063cad98e2b146100ea578063de292789146101065761007d565b80631aa3a008146100825780632ad6ff981461008c5780636dd7d8ea14610096575b600080fd5b61008a610124565b005b610094610229565b005b6100b060048036038101906100ab91906110a3565b61060d565b005b6100cc60048036038101906100c791906110a3565b610944565b005b6100e860048036038101906100e391906110d0565b610a9b565b005b61010460048036038101906100ff9190611188565b610bf2565b005b61010e610d52565b60405161011b919061137d565b60405180910390f35b600060038111156101385761013761139f565b5b600360149054906101000a900460ff16600381111561015a5761015961139f565b5b1461019a576040517f08c379a000000000000000000000000000000000000000000000000000000000815260040161019190611451565b60405180910390fd5b600160009054906101000a900473ffffffffffffffffffffffffffffffffffffffff1673ffffffffffffffffffffffffffffffffffffffff16634420e486336040518263ffffffff1660e01b81526004016101f59190611480565b600060405180830381600087803b15801561020f57600080fd5b505af1158015610223573d6000803e3d6000fd5b50505050565b6000600381111561023d5761023c61139f565b5b600360149054906101000a900460ff16600381111561025f5761025e61139f565b5b1461029f576040517f08c379a000000000000000000000000000000000000000000000000000000000815260040161029690611451565b60405180910390fd5b3373ffffffffffffffffffffffffffffffffffffffff16600360009054906101000a900473ffffffffffffffffffffffffffffffffffffffff1673ffffffffffffffffffffffffffffffffffffffff161461032f576040517f08c379a00000000000000000000000000000000000000000000000000000000081526004016103269061150d565b60405180910390fd5b6000600260009054906101000a900473ffffffffffffffffffffffffffffffffffffffff1673ffffffffffffffffffffffffffffffffffffffff1663fdbc40066040518163ffffffff1660e01b8152600401600060405180830381865afa15801561039e573d6000803e3d6000fd5b505050506040513d6000823e3d601f19601f820116820180604052508101906103c7919061187e565b9050600181511161040d576040517f08c379a00000000000000000000000000000000000000000000000000000000081526004016104049061195f565b60405180910390fd5b6001600360146101000a81548160ff021916908360038111156104335761043261139f565b5b021790555060008054906101000a900473ffffffffffffffffffffffffffffffffffffffff1673ffffffffffffffffffffffffffffffffffffffff16639cdcc0a8600160009054906101000a900473ffffffffffffffffffffffffffffffffffffffff1673ffffffffffffffffffffffffffffffffffffffff1663ad6057296040518163ffffffff1660e01b8152600401602060405180830381865afa1580156104e1573d6000803e3d6000fd5b505050506040513d601f19601f8201168201806040525081019061050591906119b5565b6040518263ffffffff1660e01b815260040161052191906119f1565b600060405180830381600087803b15801561053b57600080fd5b505af115801561054f573d6000803e3d6000fd5b5050505060008054906101000a900473ffffffffffffffffffffffffffffffffffffffff1673ffffffffffffffffffffffffffffffffffffffff1663af1c9b55826040518263ffffffff1660e01b81526004016105ac9190611b5e565b600060405180830381600087803b1580156105c657600080fd5b505af11580156105da573d6000803e3d6000fd5b505050507fd9f50ec4b54f7c3550faf219dc325af53329e3bed2efeb39b7e8970a7fc8dced60405160405180910390a150565b6001151561061a33610e87565b15151461065c576040517f08c379a000000000000000000000000000000000000000000000000000000000815260040161065390611bf2565b60405180910390fd5b600160038111156106705761066f61139f565b5b600360149054906101000a900460ff1660038111156106925761069161139f565b5b14806106d15750600260038111156106ad576106ac61139f565b5b600360149054906101000a900460ff1660038111156106cf576106ce61139f565b5b145b610710576040517f08c379a000000000000000000000000000000000000000000000000000000000815260040161070790611c84565b60405180910390fd5b61071981610f2c565b610758576040517f08c379a000000000000000000000000000000000000000000000000000000000815260040161074f90611d62565b60405180910390fd5b60008060009054906101000a900473ffffffffffffffffffffffffffffffffffffffff1673ffffffffffffffffffffffffffffffffffffffff1663128d87113384600160038111156107ad576107ac61139f565b5b600360149054906101000a900460ff1660038111156107cf576107ce61139f565b5b146040518463ffffffff1660e01b81526004016107ee93929190611d9d565b6020604051808303816000875af115801561080d573d6000803e3d6000fd5b505050506040513d601f19601f820116820180604052508101906108319190611e00565b905080156109405760008054906101000a900473ffffffffffffffffffffffffffffffffffffffff1673ffffffffffffffffffffffffffffffffffffffff1663fb5875b0600260038111156108895761088861139f565b5b600360149054906101000a900460ff1660038111156108ab576108aa61139f565b5b146040518263ffffffff1660e01b81526004016108c89190611e2d565b6000604051808303816000875af11580156108e7573d6000803e3d6000fd5b505050506040513d6000823e3d601f19601f820116820180604052508101906109109190611e6d565b9050600360148291906101000a81548160ff021916908360038111156109395761093861139f565b5b0217905550505b5050565b6001151561095133610e87565b151514610993576040517f08c379a000000000000000000000000000000000000000000000000000000000815260040161098a90611bf2565b60405180910390fd5b600060038111156109a7576109a661139f565b5b600360149054906101000a900460ff1660038111156109c9576109c861139f565b5b14610a09576040517f08c379a0000000000000000000000000000000000000000000000000000000008152600401610a0090611451565b60405180910390fd5b600260009054906101000a900473ffffffffffffffffffffffffffffffffffffffff1673ffffffffffffffffffffffffffffffffffffffff16636b83847333836040518363ffffffff1660e01b8152600401610a66929190611ec9565b600060405180830381600087803b158015610a8057600080fd5b505af1158015610a94573d6000803e3d6000fd5b5050505050565b600360009054906101000a900473ffffffffffffffffffffffffffffffffffffffff1673ffffffffffffffffffffffffffffffffffffffff163373ffffffffffffffffffffffffffffffffffffffff1614610b2b576040517f08c379a0000000000000000000000000000000000000000000000000000000008152600401610b2290611f64565b60405180910390fd5b826000806101000a81548173ffffffffffffffffffffffffffffffffffffffff021916908373ffffffffffffffffffffffffffffffffffffffff16021790555081600160006101000a81548173ffffffffffffffffffffffffffffffffffffffff021916908373ffffffffffffffffffffffffffffffffffffffff16021790555080600260006101000a81548173ffffffffffffffffffffffffffffffffffffffff021916908373ffffffffffffffffffffffffffffffffffffffff160217905550505050565b60011515610bff33610e87565b151514610c41576040517f08c379a0000000000000000000000000000000000000000000000000000000008152600401610c3890611bf2565b60405180910390fd5b60006003811115610c5557610c5461139f565b5b600360149054906101000a900460ff166003811115610c7757610c7661139f565b5b14610cb7576040517f08c379a0000000000000000000000000000000000000000000000000000000008152600401610cae90611451565b60405180910390fd5b600260009054906101000a900473ffffffffffffffffffffffffffffffffffffffff1673ffffffffffffffffffffffffffffffffffffffff16632758ebb333868686866040518663ffffffff1660e01b8152600401610d1a959493929190611fc0565b600060405180830381600087803b158015610d3457600080fd5b505af1158015610d48573d6000803e3d6000fd5b5050505050505050565b610d5a610fd1565b600380811115610d6d57610d6c61139f565b5b600360149054906101000a900460ff166003811115610d8f57610d8e61139f565b5b14610dcf576040517f08c379a0000000000000000000000000000000000000000000000000000000008152600401610dc69061207b565b60405180910390fd5b60008060009054906101000a900473ffffffffffffffffffffffffffffffffffffffff1673ffffffffffffffffffffffffffffffffffffffff1663a48de4d36040518163ffffffff1660e01b8152600401600060405180830381865afa158015610e3d573d6000803e3d6000fd5b505050506040513d6000823e3d601f19601f82011682018060405250810190610e66919061216a565b9050806000600a8110610e7c57610e7b6121b3565b5b602002015191505090565b6000600160009054906101000a900473ffffffffffffffffffffffffffffffffffffffff1673ffffffffffffffffffffffffffffffffffffffff16634a34495f836040518263ffffffff1660e01b8152600401610ee49190611480565b602060405180830381865afa158015610f01573d6000803e3d6000fd5b505050506040513d601f19601f82011682018060405250810190610f259190611e00565b9050919050565b6000600260009054906101000a900473ffffffffffffffffffffffffffffffffffffffff1673ffffffffffffffffffffffffffffffffffffffff1663d51b9e93836040518263ffffffff1660e01b8152600401610f899190611480565b602060405180830381865afa158015610fa6573d6000803e3d6000fd5b505050506040513d601f19601f82011682018060405250810190610fca9190611e00565b9050919050565b6040518060c00160405280600081526020016060815260200160608152602001600073ffffffffffffffffffffffffffffffffffffffff168152602001600067ffffffffffffffff168152602001600067ffffffffffffffff1681525090565b6000604051905090565b600080fd5b600080fd5b600073ffffffffffffffffffffffffffffffffffffffff82169050919050565b600061107082611045565b9050919050565b61108081611065565b811461108b57600080fd5b50565b60008135905061109d81611077565b92915050565b6000602082840312156110b9576110b861103b565b5b60006110c78482850161108e565b91505092915050565b6000806000606084860312156110e9576110e861103b565b5b60006110f78682870161108e565b93505060206111088682870161108e565b92505060406111198682870161108e565b9150509250925092565b600080fd5b600080fd5b600080fd5b60008083601f84011261114857611147611123565b5b8235905067ffffffffffffffff81111561116557611164611128565b5b6020830191508360018202830111156111815761118061112d565b5b9250929050565b600080600080604085870312156111a2576111a161103b565b5b600085013567ffffffffffffffff8111156111c0576111bf611040565b5b6111cc87828801611132565b9450945050602085013567ffffffffffffffff8111156111ef576111ee611040565b5b6111fb87828801611132565b925092505092959194509250565b6000819050919050565b61121c81611209565b82525050565b600081519050919050565b600082825260208201905092915050565b60005b8381101561125c578082015181840152602081019050611241565b8381111561126b576000848401525b50505050565b6000601f19601f8301169050919050565b600061128d82611222565b611297818561122d565b93506112a781856020860161123e565b6112b081611271565b840191505092915050565b6112c481611065565b82525050565b600067ffffffffffffffff82169050919050565b6112e7816112ca565b82525050565b600060c0830160008301516113056000860182611213565b506020830151848203602086015261131d8282611282565b915050604083015184820360408601526113378282611282565b915050606083015161134c60608601826112bb565b50608083015161135f60808601826112de565b5060a083015161137260a08601826112de565b508091505092915050565b6000602082019050818103600083015261139781846112ed565b905092915050565b7f4e487b7100000000000000000000000000000000000000000000000000000000600052602160045260246000fd5b600082825260208201905092915050565b7f4f7065726174696f6e2064656e6965642e20456c656374696f6e206973206e6f60008201527f7420696e207072652d656c656374696f6e2070686173652e0000000000000000602082015250565b600061143b6038836113ce565b9150611446826113df565b604082019050919050565b6000602082019050818103600083015261146a8161142e565b9050919050565b61147a81611065565b82525050565b60006020820190506114956000830184611471565b92915050565b7f4f6e6c79206f776e6572206f6620636f6e74726163742063616e20656e64207460008201527f6865207072652d656c656374696f6e2070686173650000000000000000000000602082015250565b60006114f76035836113ce565b91506115028261149b565b604082019050919050565b60006020820190508181036000830152611526816114ea565b9050919050565b7f4e487b7100000000000000000000000000000000000000000000000000000000600052604160045260246000fd5b61156582611271565b810181811067ffffffffffffffff821117156115845761158361152d565b5b80604052505050565b6000611597611031565b90506115a3828261155c565b919050565b600067ffffffffffffffff8211156115c3576115c261152d565b5b602082029050602081019050919050565b600080fd5b600080fd5b6115e781611209565b81146115f257600080fd5b50565b600081519050611604816115de565b92915050565b600080fd5b600067ffffffffffffffff82111561162a5761162961152d565b5b61163382611271565b9050602081019050919050565b600061165361164e8461160f565b61158d565b90508281526020810184848401111561166f5761166e61160a565b5b61167a84828561123e565b509392505050565b600082601f83011261169757611696611123565b5b81516116a7848260208601611640565b91505092915050565b6000815190506116bf81611077565b92915050565b6116ce816112ca565b81146116d957600080fd5b50565b6000815190506116eb816116c5565b92915050565b600060c08284031215611707576117066115d4565b5b61171160c061158d565b90506000611721848285016115f5565b600083015250602082015167ffffffffffffffff811115611745576117446115d9565b5b61175184828501611682565b602083015250604082015167ffffffffffffffff811115611775576117746115d9565b5b61178184828501611682565b6040830152506060611795848285016116b0565b60608301525060806117a9848285016116dc565b60808301525060a06117bd848285016116dc565b60a08301525092915050565b60006117dc6117d7846115a8565b61158d565b905080838252602082019050602084028301858111156117ff576117fe61112d565b5b835b8181101561184657805167ffffffffffffffff81111561182457611823611123565b5b80860161183189826116f1565b85526020850194505050602081019050611801565b5050509392505050565b600082601f83011261186557611864611123565b5b81516118758482602086016117c9565b91505092915050565b6000602082840312156118945761189361103b565b5b600082015167ffffffffffffffff8111156118b2576118b1611040565b5b6118be84828501611850565b91505092915050565b7f5468657265206d757374206265206d6f7265207468616e20312063616e64696460008201527f61746520746f20656e6420746865207072652d656c656374696f6e207068617360208201527f652e000000000000000000000000000000000000000000000000000000000000604082015250565b60006119496042836113ce565b9150611954826118c7565b606082019050919050565b600060208201905081810360008301526119788161193c565b9050919050565b6000819050919050565b6119928161197f565b811461199d57600080fd5b50565b6000815190506119af81611989565b92915050565b6000602082840312156119cb576119ca61103b565b5b60006119d9848285016119a0565b91505092915050565b6119eb8161197f565b82525050565b6000602082019050611a0660008301846119e2565b92915050565b600081519050919050565b600082825260208201905092915050565b6000819050602082019050919050565b600060c083016000830151611a506000860182611213565b5060208301518482036020860152611a688282611282565b91505060408301518482036040860152611a828282611282565b9150506060830151611a9760608601826112bb565b506080830151611aaa60808601826112de565b5060a0830151611abd60a08601826112de565b508091505092915050565b6000611ad48383611a38565b905092915050565b6000602082019050919050565b6000611af482611a0c565b611afe8185611a17565b935083602082028501611b1085611a28565b8060005b85811015611b4c5784840389528151611b2d8582611ac8565b9450611b3883611adc565b925060208a01995050600181019050611b14565b50829750879550505050505092915050565b60006020820190508181036000830152611b788184611ae9565b905092915050565b7f4f7065726174696f6e2064656e6965642e20454f41206973206e6f742061207260008201527f656769737465726564207061727469636970616e742e00000000000000000000602082015250565b6000611bdc6036836113ce565b9150611be782611b80565b604082019050919050565b60006020820190508181036000830152611c0b81611bcf565b9050919050565b7f4f7065726174696f6e2064656e6965642e20456c656374696f6e206973206e6f60008201527f7420696e206120766f74696e672070686173652e000000000000000000000000602082015250565b6000611c6e6034836113ce565b9150611c7982611c12565b604082019050919050565b60006020820190508181036000830152611c9d81611c61565b9050919050565b7f4f7065726174696f6e2064656e6965642e20454f41207265666572656e63656460008201527f20627920706172616d657465722063616e646964617465206d7573742062652060208201527f612076616c69642063616e64696461746520696e2074686520656c656374696f60408201527f6e2e000000000000000000000000000000000000000000000000000000000000606082015250565b6000611d4c6062836113ce565b9150611d5782611ca4565b608082019050919050565b60006020820190508181036000830152611d7b81611d3f565b9050919050565b60008115159050919050565b611d9781611d82565b82525050565b6000606082019050611db26000830186611471565b611dbf6020830185611471565b611dcc6040830184611d8e565b949350505050565b611ddd81611d82565b8114611de857600080fd5b50565b600081519050611dfa81611dd4565b92915050565b600060208284031215611e1657611e1561103b565b5b6000611e2484828501611deb565b91505092915050565b6000602082019050611e426000830184611d8e565b92915050565b60048110611e5557600080fd5b50565b600081519050611e6781611e48565b92915050565b60008060408385031215611e8457611e8361103b565b5b600083015167ffffffffffffffff811115611ea257611ea1611040565b5b611eae85828601611850565b9250506020611ebf85828601611e58565b9150509250929050565b6000604082019050611ede6000830185611471565b611eeb6020830184611471565b9392505050565b7f4f7065726174696f6e2064656e6965642e20596f7520617265206e6f7420746860008201527f65206f776e65722e000000000000000000000000000000000000000000000000602082015250565b6000611f4e6028836113ce565b9150611f5982611ef2565b604082019050919050565b60006020820190508181036000830152611f7d81611f41565b9050919050565b82818337600083830152505050565b6000611f9f83856113ce565b9350611fac838584611f84565b611fb583611271565b840190509392505050565b6000606082019050611fd56000830188611471565b8181036020830152611fe8818688611f93565b90508181036040830152611ffd818486611f93565b90509695505050505050565b7f4f7065726174696f6e2064656e6965642e20456c656374696f6e206973206e6f60008201527f7420696e20706f73742d656c656374696f6e2070686173652e00000000000000602082015250565b60006120656039836113ce565b915061207082612009565b604082019050919050565b6000602082019050818103600083015261209481612058565b9050919050565b600067ffffffffffffffff8211156120b6576120b561152d565b5b602082029050919050565b60006120d46120cf8461209b565b61158d565b905080602084028301858111156120ee576120ed61112d565b5b835b8181101561213557805167ffffffffffffffff81111561211357612112611123565b5b80860161212089826116f1565b855260208501945050506020810190506120f0565b5050509392505050565b600082601f83011261215457612153611123565b5b600a6121618482856120c1565b91505092915050565b6000602082840312156121805761217f61103b565b5b600082015167ffffffffffffffff81111561219e5761219d611040565b5b6121aa8482850161213f565b91505092915050565b7f4e487b7100000000000000000000000000000000000000000000000000000000600052603260045260246000fdfea2646970667358221220b1bc14d2e5b50e1759048e55334594d790d937ef69514456110e7a8320c4e5bc64736f6c634300080d0033",
  "immutableReferences": {},
  "source": "// SPDX-License-Identifier: MIT\npragma solidity ^0.8.13;\npragma experimental ABIEncoderV2;\n\nimport { Candidate } from \"./ElectionLibrary.sol\";\n\nimport \"./big.sol\";\nimport \"./Registration.sol\";\nimport \"./Nomination.sol\";\n\ncontract ElectionFacade {\n    enum ElectionPhase { PreElection, VotingPhaseOne, VotingPhaseTwo, PostElection }\n\n    BigVoting private votingContract;\n    Registration private registrationContract;\n    Nomination private nominationContract;\n    address private owner;\n    ElectionPhase private currentPhase;\n\n    /// @dev This emits when the owner of the contract declares that the pre-election \n    /// (registration + nomination) phase has ended.\n    event EndPreElectionPhase();\n\n    constructor() {\n        owner = msg.sender;\n        currentPhase = ElectionPhase.PreElection;\n    }\n\n    function setContractAddresses(address _votingContract, address _registrationContract, address _nominationContract) external {\n        require(msg.sender == owner, \"Operation denied. You are not the owner.\");\n        votingContract = BigVoting(_votingContract);\n        registrationContract = Registration(_registrationContract);\n        nominationContract = Nomination(_nominationContract);        \n    }\n\n    // Registration\n    function register() onlyPreElection external {\n        registrationContract.register(msg.sender);\n    }\n\n    // Nominations\n    function nominate(string calldata firstName, string calldata lastName) haveVotingPower onlyPreElection external {\n        nominationContract.nominate(msg.sender, firstName, lastName);\n    }\n\n    function endorse(address nominee) haveVotingPower onlyPreElection external {\n        nominationContract.endorse(msg.sender, nominee);\n    }\n\n    // Functions pertaining to phase transition\n\n    function endPreElectionPhase() external onlyPreElection {\n        require(owner == msg.sender, \"Only owner of contract can end the pre-election phase\");\n\n        Candidate[] memory candidates = nominationContract.getCandidateList();\n        \n        require(candidates.length > 1, \"There must be more than 1 candidate to end the pre-election phase.\");\n\n        currentPhase = ElectionPhase.VotingPhaseOne;\n        votingContract.setPostRegistrationNumberOfParticipants(registrationContract.getParticipantCount());\n        votingContract.setPostNominationCandidateInfo(candidates);\n        emit EndPreElectionPhase();\n    }\n\n    // Voting\n\n    function vote(address candidate) external haveVotingPower onlyVotingPhase {\n        require(\n            isCandidate(candidate), \n            \"Operation denied. EOA referenced by parameter candidate must be a valid candidate in the election.\"\n        );\n\n        bool hasExceededVotingPhaseParticipationThreshold =\n            votingContract.vote(msg.sender, candidate, currentPhase == ElectionPhase.VotingPhaseOne);\n\n        if (hasExceededVotingPhaseParticipationThreshold) \n        {\n            (, currentPhase) = votingContract.getResult(currentPhase == ElectionPhase.VotingPhaseTwo);\n        }\n    }\n\n    // Results\n    function getResult() external view onlyPostElection returns (Candidate memory) {\n        Candidate[10] memory votingContractCandidateInfo = votingContract.getCandidateInfo();\n        return votingContractCandidateInfo[0];\n    }\n\n    // View functions\n\n    // Participant registration and candidate state can be shown in the frontend using the emitted\n    // events rather than calling view function\n\n    function isCandidate(address participantAddress) private view returns (bool) {\n        return nominationContract.isCandidate(participantAddress);\n    }\n\n    function isParticipantRegistered(address participantAddress) private view returns (bool) {\n        return registrationContract.isParticipantRegistered(participantAddress);\n    }\n\n    // modifiers\n\n    modifier haveVotingPower() \n    {\n        require(isParticipantRegistered(msg.sender) == true, \"Operation denied. EOA is not a registered participant.\");\n        _;\n    } \n\n    modifier onlyInPhase(ElectionPhase _phase) \n    {\n        require(\n            currentPhase == _phase, \n            \"Function cannot be called in this phase\"\n        );\n        _;\n    }\n\n    modifier onlyPreElection() {\n        require(\n            currentPhase == ElectionPhase.PreElection, \n            \"Operation denied. Election is not in pre-election phase.\"\n        );\n        _;\n    }\n\n    modifier onlyVotingPhase() {\n        require(\n            currentPhase == ElectionPhase.VotingPhaseOne \n                || currentPhase == ElectionPhase.VotingPhaseTwo, \n            \"Operation denied. Election is not in a voting phase.\"\n        );\n        _;\n    }\n\n    modifier onlyPostElection() {\n        require(\n            currentPhase == ElectionPhase.PostElection, \n            \"Operation denied. Election is not in post-election phase.\"\n        );\n        _;\n    }\n}\n",
  "sourcePath": "/home/ariphael/dapp_project/contracts/election.sol",
  "compiler": {
    "name": "solc",
    "version": "0.8.13+commit.abaa5c0e.Emscripten.clang"
  },
  "schemaVersion": "3.4.16",
  "updatedAt": "2024-01-30T05:27:17.434Z",
  "networkType": "ethereum",
  "devdoc": {
    "events": {
      "EndPreElectionPhase()": {
        "details": "This emits when the owner of the contract declares that the pre-election  (registration + nomination) phase has ended."
      }
    },
    "kind": "dev",
    "methods": {},
    "version": 1
  },
  "userdoc": {
    "kind": "user",
    "methods": {},
    "version": 1
  }
}