{
  "contractName": "Nomination",
  "abi": [
    {
      "inputs": [
        {
          "internalType": "address",
          "name": "electionContractAddressParam",
          "type": "address"
        }
      ],
      "stateMutability": "nonpayable",
      "type": "constructor"
    },
    {
      "anonymous": false,
      "inputs": [
        {
          "indexed": false,
          "internalType": "address",
          "name": "nominee",
          "type": "address"
        },
        {
          "indexed": false,
          "internalType": "uint256",
          "name": "newEndorsementCount",
          "type": "uint256"
        }
      ],
      "name": "Endorsement",
      "type": "event"
    },
    {
      "anonymous": false,
      "inputs": [
        {
          "indexed": false,
          "internalType": "address",
          "name": "nominee",
          "type": "address"
        },
        {
          "indexed": false,
          "internalType": "string",
          "name": "firstName",
          "type": "string"
        },
        {
          "indexed": false,
          "internalType": "string",
          "name": "lastName",
          "type": "string"
        }
      ],
      "name": "NewCandidate",
      "type": "event"
    },
    {
      "anonymous": false,
      "inputs": [
        {
          "indexed": false,
          "internalType": "address",
          "name": "nominee",
          "type": "address"
        }
      ],
      "name": "Nominate",
      "type": "event"
    },
    {
      "inputs": [
        {
          "internalType": "address",
          "name": "newNominee",
          "type": "address"
        },
        {
          "internalType": "string",
          "name": "firstName",
          "type": "string"
        },
        {
          "internalType": "string",
          "name": "lastName",
          "type": "string"
        }
      ],
      "name": "nominate",
      "outputs": [],
      "stateMutability": "nonpayable",
      "type": "function"
    },
    {
      "inputs": [
        {
          "internalType": "address",
          "name": "from",
          "type": "address"
        },
        {
          "internalType": "address",
          "name": "nominee",
          "type": "address"
        }
      ],
      "name": "endorse",
      "outputs": [],
      "stateMutability": "nonpayable",
      "type": "function"
    },
    {
      "inputs": [
        {
          "internalType": "address",
          "name": "candidate",
          "type": "address"
        }
      ],
      "name": "isCandidate",
      "outputs": [
        {
          "internalType": "bool",
          "name": "",
          "type": "bool"
        }
      ],
      "stateMutability": "view",
      "type": "function",
      "constant": true
    },
    {
      "inputs": [
        {
          "internalType": "address",
          "name": "candidate",
          "type": "address"
        }
      ],
      "name": "getCandidateInfo",
      "outputs": [
        {
          "components": [
            {
              "internalType": "int256",
              "name": "id",
              "type": "int256"
            },
            {
              "internalType": "string",
              "name": "firstName",
              "type": "string"
            },
            {
              "internalType": "string",
              "name": "lastName",
              "type": "string"
            },
            {
              "internalType": "enum Nomination.NominationParticipantStatus",
              "name": "status",
              "type": "uint8"
            }
          ],
          "internalType": "struct Nomination.NominationParticipant",
          "name": "",
          "type": "tuple"
        }
      ],
      "stateMutability": "view",
      "type": "function",
      "constant": true
    },
    {
      "inputs": [],
      "name": "getCandidateList",
      "outputs": [
        {
          "components": [
            {
              "internalType": "int256",
              "name": "id",
              "type": "int256"
            },
            {
              "internalType": "string",
              "name": "firstName",
              "type": "string"
            },
            {
              "internalType": "string",
              "name": "lastName",
              "type": "string"
            },
            {
              "internalType": "address",
              "name": "candidateAddress",
              "type": "address"
            },
            {
              "internalType": "uint64",
              "name": "votesFirstTurn",
              "type": "uint64"
            },
            {
              "internalType": "uint64",
              "name": "votesSecondTurn",
              "type": "uint64"
            }
          ],
          "internalType": "struct Candidate[]",
          "name": "",
          "type": "tuple[]"
        }
      ],
      "stateMutability": "view",
      "type": "function",
      "constant": true
    }
  ],
  "bytecode": "0x60806040523480156200001157600080fd5b5060405162002351380380620023518339818101604052810190620000379190620000f1565b80600460006101000a81548173ffffffffffffffffffffffffffffffffffffffff021916908373ffffffffffffffffffffffffffffffffffffffff16021790555060016005819055505062000123565b600080fd5b600073ffffffffffffffffffffffffffffffffffffffff82169050919050565b6000620000b9826200008c565b9050919050565b620000cb81620000ac565b8114620000d757600080fd5b50565b600081519050620000eb81620000c0565b92915050565b6000602082840312156200010a576200010962000087565b5b60006200011a84828501620000da565b91505092915050565b61221e80620001336000396000f3fe608060405234801561001057600080fd5b50600436106100575760003560e01c80632758ebb31461005c57806328bde1e1146100785780636b838473146100a8578063d51b9e93146100c4578063fdbc4006146100f4575b600080fd5b61007660048036038101906100719190611611565b610112565b005b610092600480360381019061008d91906116a6565b610512565b60405161009f9190611866565b60405180910390f35b6100c260048036038101906100bd9190611888565b610868565b005b6100de60048036038101906100d991906116a6565b610e31565b6040516100eb91906118e3565b60405180910390f35b6100fc610f8f565b6040516101099190611a82565b60405180910390f35b600460009054906101000a900473ffffffffffffffffffffffffffffffffffffffff1673ffffffffffffffffffffffffffffffffffffffff163373ffffffffffffffffffffffffffffffffffffffff16146101a2576040517f08c379a000000000000000000000000000000000000000000000000000000000815260040161019990611b4d565b60405180910390fd5b6101ab856113ee565b156101eb576040517f08c379a00000000000000000000000000000000000000000000000000000000081526004016101e290611c05565b60405180910390fd5b6000600260008773ffffffffffffffffffffffffffffffffffffffff1673ffffffffffffffffffffffffffffffffffffffff1681526020019081526020016000206000015414610270576040517f08c379a000000000000000000000000000000000000000000000000000000000815260040161026790611c97565b60405180910390fd5b60016000808773ffffffffffffffffffffffffffffffffffffffff1673ffffffffffffffffffffffffffffffffffffffff168152602001908152602001600020819055506040518060800160405280600554815260200185858080601f016020809104026020016040519081016040528093929190818152602001838380828437600081840152601f19601f82011690508083019250505050505050815260200183838080601f016020809104026020016040519081016040528093929190818152602001838380828437600081840152601f19601f8201169050808301925050505050505081526020016000600181111561036f5761036e611785565b5b815250600260008773ffffffffffffffffffffffffffffffffffffffff1673ffffffffffffffffffffffffffffffffffffffff1681526020019081526020016000206000820151816000015560208201518160010190805190602001906103d7929190611407565b5060408201518160020190805190602001906103f4929190611407565b5060608201518160030160006101000a81548160ff021916908360018111156104205761041f611785565b5b021790555090505060018060008773ffffffffffffffffffffffffffffffffffffffff1673ffffffffffffffffffffffffffffffffffffffff16815260200190815260200160002060008773ffffffffffffffffffffffffffffffffffffffff1673ffffffffffffffffffffffffffffffffffffffff16815260200190815260200160002060006101000a81548160ff021916908315150217905550600560008154809291906104cf90611ce6565b91905055507f61c4e4cff7e1dfc06045eb0e5b1994d18d7e4497acc5eb2729f0233ca979adb3856040516105039190611d3d565b60405180910390a15050505050565b61051a61148d565b600460009054906101000a900473ffffffffffffffffffffffffffffffffffffffff1673ffffffffffffffffffffffffffffffffffffffff163373ffffffffffffffffffffffffffffffffffffffff16146105aa576040517f08c379a00000000000000000000000000000000000000000000000000000000081526004016105a190611b4d565b60405180910390fd5b6000600260008473ffffffffffffffffffffffffffffffffffffffff1673ffffffffffffffffffffffffffffffffffffffff168152602001908152602001600020600001541415801561066f575060018081111561060b5761060a611785565b5b600260008473ffffffffffffffffffffffffffffffffffffffff1673ffffffffffffffffffffffffffffffffffffffff16815260200190815260200160002060030160009054906101000a900460ff16600181111561066d5761066c611785565b5b145b6106ae576040517f08c379a00000000000000000000000000000000000000000000000000000000081526004016106a590611dca565b60405180910390fd5b600260008373ffffffffffffffffffffffffffffffffffffffff1673ffffffffffffffffffffffffffffffffffffffff1681526020019081526020016000206040518060800160405290816000820154815260200160018201805461071290611e19565b80601f016020809104026020016040519081016040528092919081815260200182805461073e90611e19565b801561078b5780601f106107605761010080835404028352916020019161078b565b820191906000526020600020905b81548152906001019060200180831161076e57829003601f168201915b505050505081526020016002820180546107a490611e19565b80601f01602080910402602001604051908101604052809291908181526020018280546107d090611e19565b801561081d5780601f106107f25761010080835404028352916020019161081d565b820191906000526020600020905b81548152906001019060200180831161080057829003601f168201915b505050505081526020016003820160009054906101000a900460ff16600181111561084b5761084a611785565b5b600181111561085d5761085c611785565b5b815250509050919050565b600460009054906101000a900473ffffffffffffffffffffffffffffffffffffffff1673ffffffffffffffffffffffffffffffffffffffff163373ffffffffffffffffffffffffffffffffffffffff16146108f8576040517f08c379a00000000000000000000000000000000000000000000000000000000081526004016108ef90611b4d565b60405180910390fd5b600073ffffffffffffffffffffffffffffffffffffffff168273ffffffffffffffffffffffffffffffffffffffff1603610967576040517f08c379a000000000000000000000000000000000000000000000000000000000815260040161095e90611ebc565b60405180910390fd5b60008060008373ffffffffffffffffffffffffffffffffffffffff1673ffffffffffffffffffffffffffffffffffffffff16815260200190815260200160002054036109e8576040517f08c379a00000000000000000000000000000000000000000000000000000000081526004016109df90611f4e565b60405180910390fd5b60001515600160008473ffffffffffffffffffffffffffffffffffffffff1673ffffffffffffffffffffffffffffffffffffffff16815260200190815260200160002060008373ffffffffffffffffffffffffffffffffffffffff1673ffffffffffffffffffffffffffffffffffffffff16815260200190815260200160002060009054906101000a900460ff16151514610ab8576040517f08c379a0000000000000000000000000000000000000000000000000000000008152600401610aaf90612006565b60405180910390fd5b6000808273ffffffffffffffffffffffffffffffffffffffff1673ffffffffffffffffffffffffffffffffffffffff1681526020019081526020016000206000815480929190610b0790612030565b919050555060018060008473ffffffffffffffffffffffffffffffffffffffff1673ffffffffffffffffffffffffffffffffffffffff16815260200190815260200160002060008373ffffffffffffffffffffffffffffffffffffffff1673ffffffffffffffffffffffffffffffffffffffff16815260200190815260200160002060006101000a81548160ff0219169083151502179055507fe1c657147bcaa1f7edea29edc58e2a5f9b833dfe79a2db38665f4b4855803d27816000808473ffffffffffffffffffffffffffffffffffffffff1673ffffffffffffffffffffffffffffffffffffffff16815260200190815260200160002054604051610c0f929190612087565b60405180910390a160056000808373ffffffffffffffffffffffffffffffffffffffff1673ffffffffffffffffffffffffffffffffffffffff1681526020019081526020016000205410610e2d5760008060008373ffffffffffffffffffffffffffffffffffffffff1673ffffffffffffffffffffffffffffffffffffffff168152602001908152602001600020819055506001600260008373ffffffffffffffffffffffffffffffffffffffff1673ffffffffffffffffffffffffffffffffffffffff16815260200190815260200160002060030160006101000a81548160ff02191690836001811115610d0757610d06611785565b5b02179055506003819080600181540180825580915050600190039060005260206000200160009091909190916101000a81548173ffffffffffffffffffffffffffffffffffffffff021916908373ffffffffffffffffffffffffffffffffffffffff1602179055507fe8c4efdd68af1a856b9342810ea9e2f1ed012ec5f83cade055983593e0f32ae381600260008473ffffffffffffffffffffffffffffffffffffffff1673ffffffffffffffffffffffffffffffffffffffff168152602001908152602001600020600101600260008573ffffffffffffffffffffffffffffffffffffffff1673ffffffffffffffffffffffffffffffffffffffff168152602001908152602001600020600201604051610e2493929190612145565b60405180910390a15b5050565b6000600460009054906101000a900473ffffffffffffffffffffffffffffffffffffffff1673ffffffffffffffffffffffffffffffffffffffff163373ffffffffffffffffffffffffffffffffffffffff1614610ec3576040517f08c379a0000000000000000000000000000000000000000000000000000000008152600401610eba90611b4d565b60405180910390fd5b6000600260008473ffffffffffffffffffffffffffffffffffffffff1673ffffffffffffffffffffffffffffffffffffffff1681526020019081526020016000206000015414158015610f885750600180811115610f2457610f23611785565b5b600260008473ffffffffffffffffffffffffffffffffffffffff1673ffffffffffffffffffffffffffffffffffffffff16815260200190815260200160002060030160009054906101000a900460ff166001811115610f8657610f85611785565b5b145b9050919050565b6060600460009054906101000a900473ffffffffffffffffffffffffffffffffffffffff1673ffffffffffffffffffffffffffffffffffffffff163373ffffffffffffffffffffffffffffffffffffffff1614611021576040517f08c379a000000000000000000000000000000000000000000000000000000000815260040161101890611b4d565b60405180910390fd5b600060038054905067ffffffffffffffff8111156110425761104161218a565b5b60405190808252806020026020018201604052801561107b57816020015b6110686114c7565b8152602001906001900390816110605790505b50905060005b6003805490508110156113e6576040518060c0016040528060026000600385815481106110b1576110b06121b9565b5b9060005260206000200160009054906101000a900473ffffffffffffffffffffffffffffffffffffffff1673ffffffffffffffffffffffffffffffffffffffff1673ffffffffffffffffffffffffffffffffffffffff1681526020019081526020016000206000015481526020016002600060038581548110611137576111366121b9565b5b9060005260206000200160009054906101000a900473ffffffffffffffffffffffffffffffffffffffff1673ffffffffffffffffffffffffffffffffffffffff1673ffffffffffffffffffffffffffffffffffffffff16815260200190815260200160002060010180546111aa90611e19565b80601f01602080910402602001604051908101604052809291908181526020018280546111d690611e19565b80156112235780601f106111f857610100808354040283529160200191611223565b820191906000526020600020905b81548152906001019060200180831161120657829003601f168201915b505050505081526020016002600060038581548110611245576112446121b9565b5b9060005260206000200160009054906101000a900473ffffffffffffffffffffffffffffffffffffffff1673ffffffffffffffffffffffffffffffffffffffff1673ffffffffffffffffffffffffffffffffffffffff16815260200190815260200160002060020180546112b890611e19565b80601f01602080910402602001604051908101604052809291908181526020018280546112e490611e19565b80156113315780601f1061130657610100808354040283529160200191611331565b820191906000526020600020905b81548152906001019060200180831161131457829003601f168201915b505050505081526020016003838154811061134f5761134e6121b9565b5b9060005260206000200160009054906101000a900473ffffffffffffffffffffffffffffffffffffffff1673ffffffffffffffffffffffffffffffffffffffff168152602001600067ffffffffffffffff168152602001600067ffffffffffffffff168152508282815181106113c8576113c76121b9565b5b602002602001018190525080806113de90612030565b915050611081565b508091505090565b600080823b905060008163ffffffff1611915050919050565b82805461141390611e19565b90600052602060002090601f016020900481019282611435576000855561147c565b82601f1061144e57805160ff191683800117855561147c565b8280016001018555821561147c579182015b8281111561147b578251825591602001919060010190611460565b5b5090506114899190611527565b5090565b6040518060800160405280600081526020016060815260200160608152602001600060018111156114c1576114c0611785565b5b81525090565b6040518060c00160405280600081526020016060815260200160608152602001600073ffffffffffffffffffffffffffffffffffffffff168152602001600067ffffffffffffffff168152602001600067ffffffffffffffff1681525090565b5b80821115611540576000816000905550600101611528565b5090565b600080fd5b600080fd5b600073ffffffffffffffffffffffffffffffffffffffff82169050919050565b60006115798261154e565b9050919050565b6115898161156e565b811461159457600080fd5b50565b6000813590506115a681611580565b92915050565b600080fd5b600080fd5b600080fd5b60008083601f8401126115d1576115d06115ac565b5b8235905067ffffffffffffffff8111156115ee576115ed6115b1565b5b60208301915083600182028301111561160a576116096115b6565b5b9250929050565b60008060008060006060868803121561162d5761162c611544565b5b600061163b88828901611597565b955050602086013567ffffffffffffffff81111561165c5761165b611549565b5b611668888289016115bb565b9450945050604086013567ffffffffffffffff81111561168b5761168a611549565b5b611697888289016115bb565b92509250509295509295909350565b6000602082840312156116bc576116bb611544565b5b60006116ca84828501611597565b91505092915050565b6000819050919050565b6116e6816116d3565b82525050565b600081519050919050565b600082825260208201905092915050565b60005b8381101561172657808201518184015260208101905061170b565b83811115611735576000848401525b50505050565b6000601f19601f8301169050919050565b6000611757826116ec565b61176181856116f7565b9350611771818560208601611708565b61177a8161173b565b840191505092915050565b7f4e487b7100000000000000000000000000000000000000000000000000000000600052602160045260246000fd5b600281106117c5576117c4611785565b5b50565b60008190506117d6826117b4565b919050565b60006117e6826117c8565b9050919050565b6117f6816117db565b82525050565b600060808301600083015161181460008601826116dd565b506020830151848203602086015261182c828261174c565b91505060408301518482036040860152611846828261174c565b915050606083015161185b60608601826117ed565b508091505092915050565b6000602082019050818103600083015261188081846117fc565b905092915050565b6000806040838503121561189f5761189e611544565b5b60006118ad85828601611597565b92505060206118be85828601611597565b9150509250929050565b60008115159050919050565b6118dd816118c8565b82525050565b60006020820190506118f860008301846118d4565b92915050565b600081519050919050565b600082825260208201905092915050565b6000819050602082019050919050565b6119338161156e565b82525050565b600067ffffffffffffffff82169050919050565b61195681611939565b82525050565b600060c08301600083015161197460008601826116dd565b506020830151848203602086015261198c828261174c565b915050604083015184820360408601526119a6828261174c565b91505060608301516119bb606086018261192a565b5060808301516119ce608086018261194d565b5060a08301516119e160a086018261194d565b508091505092915050565b60006119f8838361195c565b905092915050565b6000602082019050919050565b6000611a18826118fe565b611a228185611909565b935083602082028501611a348561191a565b8060005b85811015611a705784840389528151611a5185826119ec565b9450611a5c83611a00565b925060208a01995050600181019050611a38565b50829750879550505050505092915050565b60006020820190508181036000830152611a9c8184611a0d565b905092915050565b600082825260208201905092915050565b7f4f7065726174696f6e2064656e6965642e204f6e6c7920656c656374696f6e2060008201527f736d61727420636f6e74726163742063616e2063616c6c20746869732066756e60208201527f6374696f6e2e0000000000000000000000000000000000000000000000000000604082015250565b6000611b37604683611aa4565b9150611b4282611ab5565b606082019050919050565b60006020820190508181036000830152611b6681611b2a565b9050919050565b7f4f7065726174696f6e2064656e6965642e204120636f6e74726163742061636360008201527f6f756e742063616e6e6f74206265206e6f6d696e617465642061732063616e6460208201527f6964617465000000000000000000000000000000000000000000000000000000604082015250565b6000611bef604583611aa4565b9150611bfa82611b6d565b606082019050919050565b60006020820190508181036000830152611c1e81611be2565b9050919050565b7f4f7065726174696f6e2064656e6965642e204163636f756e7420697320616c7260008201527f6561647920612063616e646964617465206f72206e6f6d696e65650000000000602082015250565b6000611c81603b83611aa4565b9150611c8c82611c25565b604082019050919050565b60006020820190508181036000830152611cb081611c74565b9050919050565b7f4e487b7100000000000000000000000000000000000000000000000000000000600052601160045260246000fd5b6000611cf1826116d3565b91507f7fffffffffffffffffffffffffffffffffffffffffffffffffffffffffffffff8203611d2357611d22611cb7565b5b600182019050919050565b611d378161156e565b82525050565b6000602082019050611d526000830184611d2e565b92915050565b7f4f7065726174696f6e2064656e6965642e204163636f756e74206973206e6f7460008201527f20612063616e6469646174652e00000000000000000000000000000000000000602082015250565b6000611db4602d83611aa4565b9150611dbf82611d58565b604082019050919050565b60006020820190508181036000830152611de381611da7565b9050919050565b7f4e487b7100000000000000000000000000000000000000000000000000000000600052602260045260246000fd5b60006002820490506001821680611e3157607f821691505b602082108103611e4457611e43611dea565b5b50919050565b7f4f7065726174696f6e2064656e6965642e2046726f6d2063616e6e6f7420626560008201527f207468652061646472657373207a65726f2e0000000000000000000000000000602082015250565b6000611ea6603283611aa4565b9150611eb182611e4a565b604082019050919050565b60006020820190508181036000830152611ed581611e99565b9050919050565b7f4f7065726174696f6e2064656e6965642e20226e6f6d696e656522206973206e60008201527f6f742061206e6f6d696e65652e00000000000000000000000000000000000000602082015250565b6000611f38602d83611aa4565b9150611f4382611edc565b604082019050919050565b60006020820190508181036000830152611f6781611f2b565b9050919050565b7f4f7065726174696f6e2064656e6965642e2046726f6d2063616e6e6f7420656e60008201527f646f727365207468652073616d65206e6f6d696e6565206d6f7265207468616e60208201527f206f6e63652e0000000000000000000000000000000000000000000000000000604082015250565b6000611ff0604683611aa4565b9150611ffb82611f6e565b606082019050919050565b6000602082019050818103600083015261201f81611fe3565b9050919050565b6000819050919050565b600061203b82612026565b91507fffffffffffffffffffffffffffffffffffffffffffffffffffffffffffffffff820361206d5761206c611cb7565b5b600182019050919050565b61208181612026565b82525050565b600060408201905061209c6000830185611d2e565b6120a96020830184612078565b9392505050565b60008190508160005260206000209050919050565b600081546120d281611e19565b6120dc8186611aa4565b945060018216600081146120f757600181146121095761213c565b60ff198316865260208601935061213c565b612112856120b0565b60005b8381101561213457815481890152600182019150602081019050612115565b808801955050505b50505092915050565b600060608201905061215a6000830186611d2e565b818103602083015261216c81856120c5565b9050818103604083015261218081846120c5565b9050949350505050565b7f4e487b7100000000000000000000000000000000000000000000000000000000600052604160045260246000fd5b7f4e487b7100000000000000000000000000000000000000000000000000000000600052603260045260246000fdfea264697066735822122090d6e0601430a21914697271602955f7265856764e55ca95443a30e7851b77ac64736f6c634300080d0033",
  "immutableReferences": {},
  "source": "// SPDX-License-Identifier: UNLICENSED \npragma solidity ^0.8.13;\n\nimport { Candidate } from \"./ElectionLibrary.sol\";\n\ncontract Nomination {\n  enum NominationParticipantStatus { Nominee, Candidate }\n\n  uint private constant MINIMUM_REQUIRED_ENDORSEMENTS = 5;\n\n  mapping(address => uint) nomineeEndorsements;\n  mapping(address => mapping(address => bool)) participantEndorsementRecord;\n  mapping(address => NominationParticipant) nominationParticipantInfo;\n  address[] private candidateAddresses;\n  address private electionContractAddress;\n  int private nextId;\n\n  /// @dev This emits when a new nominee is created.\n  event Nominate(address nominee);\n\n  /// @dev This emits when a nominee turns into a candidate which occurs when a sufficient number of endorsements\n  /// is accrued. \n  /// Note: Nominee endorsements for the address nominee resets to zero and a candidate cannot be nominated.\n  event NewCandidate(address nominee, string firstName, string lastName);\n\n  /// @dev This emits when a nominee receives an endorsement.\n  event Endorsement(address nominee, uint newEndorsementCount);\n\n  modifier onlyElectionContractCanCall() {\n    require(msg.sender == electionContractAddress, \"Operation denied. Only election smart contract can call this function.\");\n    _;\n  }\n\n  constructor(address electionContractAddressParam) {\n    electionContractAddress = electionContractAddressParam;\n    nextId = 1;\n  }\n\n  struct NominationParticipant \n  {\n    int id;\n    string firstName;\n    string lastName;\n    NominationParticipantStatus status;\n  }\n\n  function nominate(address newNominee, string calldata firstName, string calldata lastName) external onlyElectionContractCanCall {\n    require(!isContract(newNominee), \"Operation denied. A contract account cannot be nominated as candidate\");\n    require(nominationParticipantInfo[newNominee].id == 0, \"Operation denied. Account is already a candidate or nominee\");\n\n    nomineeEndorsements[newNominee] = 1;\n    nominationParticipantInfo[newNominee] =\n      NominationParticipant(nextId, firstName, lastName, NominationParticipantStatus.Nominee);\n    participantEndorsementRecord[newNominee][newNominee] = true;\n    nextId++;\n    emit Nominate(newNominee);\n  }\n\n  function endorse(address from, address nominee) external onlyElectionContractCanCall {\n    require(from != address(0), \"Operation denied. From cannot be the address zero.\");\n    require(nomineeEndorsements[nominee] != 0, \"Operation denied. \\\"nominee\\\" is not a nominee.\");\n    require(participantEndorsementRecord[from][nominee] == false, \"Operation denied. From cannot endorse the same nominee more than once.\");\n\n    nomineeEndorsements[nominee]++;\n    participantEndorsementRecord[from][nominee] = true;\n    emit Endorsement(nominee, nomineeEndorsements[nominee]);\n\n    if (nomineeEndorsements[nominee] >= MINIMUM_REQUIRED_ENDORSEMENTS) {\n      nomineeEndorsements[nominee] = 0;\n      nominationParticipantInfo[nominee].status = NominationParticipantStatus.Candidate;\n      candidateAddresses.push(nominee);\n      emit NewCandidate(\n        nominee, \n        nominationParticipantInfo[nominee].firstName, \n        nominationParticipantInfo[nominee].lastName\n      );\n    }\n  }\n\n  function isCandidate(address candidate) external view onlyElectionContractCanCall returns (bool) {\n    return nominationParticipantInfo[candidate].id != 0 \n      && nominationParticipantInfo[candidate].status == NominationParticipantStatus.Candidate;\n  }\n\n  function getCandidateInfo(address candidate) external view onlyElectionContractCanCall returns (NominationParticipant memory) {\n    require(\n      nominationParticipantInfo[candidate].id != 0 \n        && nominationParticipantInfo[candidate].status == NominationParticipantStatus.Candidate, \n      \"Operation denied. Account is not a candidate.\"\n    );\n    return nominationParticipantInfo[candidate];\n  }\n\n  function getCandidateList() external view onlyElectionContractCanCall returns (Candidate[] memory) {\n    Candidate[] memory candidates = new Candidate[](candidateAddresses.length);\n\n    for (uint i = 0; i < candidateAddresses.length; i++) {\n      candidates[i] = Candidate({\n        id: nominationParticipantInfo[candidateAddresses[i]].id,\n        firstName: nominationParticipantInfo[candidateAddresses[i]].firstName,\n        lastName: nominationParticipantInfo[candidateAddresses[i]].lastName,\n        candidateAddress: candidateAddresses[i],\n        votesFirstTurn: 0,\n        votesSecondTurn: 0\n      });\n    }\n\n    return candidates;\n  }\n\n  function isContract(address account) private view returns (bool) {\n    uint32 size;\n    assembly {\n      size := extcodesize(account)\n    }\n    return size > 0;\n  }\n}",
  "sourcePath": "/home/ariphael/dapp_project/contracts/Nomination.sol",
  "compiler": {
    "name": "solc",
    "version": "0.8.13+commit.abaa5c0e.Emscripten.clang"
  },
  "schemaVersion": "3.4.16",
  "updatedAt": "2024-01-30T05:27:17.495Z",
  "networkType": "ethereum",
  "devdoc": {
    "events": {
      "Endorsement(address,uint256)": {
        "details": "This emits when a nominee receives an endorsement."
      },
      "NewCandidate(address,string,string)": {
        "details": "This emits when a nominee turns into a candidate which occurs when a sufficient number of endorsements is accrued.  Note: Nominee endorsements for the address nominee resets to zero and a candidate cannot be nominated."
      },
      "Nominate(address)": {
        "details": "This emits when a new nominee is created."
      }
    },
    "kind": "dev",
    "methods": {},
    "version": 1
  },
  "userdoc": {
    "kind": "user",
    "methods": {},
    "version": 1
  }
}