{
  "contractName": "Registration",
  "abi": [
    {
      "inputs": [
        {
          "internalType": "address",
          "name": "electionContractAddressParam",
          "type": "address"
        }
      ],
      "stateMutability": "nonpayable",
      "type": "constructor"
    },
    {
      "anonymous": false,
      "inputs": [
        {
          "indexed": false,
          "internalType": "address",
          "name": "newParticipant",
          "type": "address"
        }
      ],
      "name": "Register",
      "type": "event"
    },
    {
      "inputs": [
        {
          "internalType": "address",
          "name": "registree",
          "type": "address"
        }
      ],
      "name": "register",
      "outputs": [],
      "stateMutability": "nonpayable",
      "type": "function"
    },
    {
      "inputs": [
        {
          "internalType": "address",
          "name": "participantAddress",
          "type": "address"
        }
      ],
      "name": "isParticipantRegistered",
      "outputs": [
        {
          "internalType": "bool",
          "name": "",
          "type": "bool"
        }
      ],
      "stateMutability": "view",
      "type": "function",
      "constant": true
    },
    {
      "inputs": [],
      "name": "getParticipantCount",
      "outputs": [
        {
          "internalType": "uint256",
          "name": "",
          "type": "uint256"
        }
      ],
      "stateMutability": "view",
      "type": "function",
      "constant": true
    }
  ],
  "bytecode": "0x608060405234801561001057600080fd5b50604051610957380380610957833981810160405281019061003291906100e3565b806000806101000a81548173ffffffffffffffffffffffffffffffffffffffff021916908373ffffffffffffffffffffffffffffffffffffffff160217905550600060028190555050610110565b600080fd5b600073ffffffffffffffffffffffffffffffffffffffff82169050919050565b60006100b082610085565b9050919050565b6100c0816100a5565b81146100cb57600080fd5b50565b6000815190506100dd816100b7565b92915050565b6000602082840312156100f9576100f8610080565b5b6000610107848285016100ce565b91505092915050565b6108388061011f6000396000f3fe608060405234801561001057600080fd5b50600436106100415760003560e01c80634420e486146100465780634a34495f14610062578063ad60572914610092575b600080fd5b610060600480360381019061005b91906104b7565b6100b0565b005b61007c600480360381019061007791906104b7565b6102bd565b60405161008991906104ff565b60405180910390f35b61009a6103a2565b6040516100a79190610533565b60405180910390f35b60008054906101000a900473ffffffffffffffffffffffffffffffffffffffff1673ffffffffffffffffffffffffffffffffffffffff163373ffffffffffffffffffffffffffffffffffffffff161461013e576040517f08c379a0000000000000000000000000000000000000000000000000000000008152600401610135906105f7565b60405180910390fd5b6101478161043b565b15610187576040517f08c379a000000000000000000000000000000000000000000000000000000000815260040161017e906106af565b60405180910390fd5b600160008273ffffffffffffffffffffffffffffffffffffffff1673ffffffffffffffffffffffffffffffffffffffff16815260200190815260200160002060009054906101000a900460ff1615610214576040517f08c379a000000000000000000000000000000000000000000000000000000000815260040161020b90610741565b60405180910390fd5b60018060008373ffffffffffffffffffffffffffffffffffffffff1673ffffffffffffffffffffffffffffffffffffffff16815260200190815260200160002060006101000a81548160ff0219169083151502179055506002600081548092919061027e90610790565b91905055507feeda149c76076b34d4b9d8896c2f7efc0d33d1c7b53ea3c5db490d64613f603a816040516102b291906107e7565b60405180910390a150565b60008060009054906101000a900473ffffffffffffffffffffffffffffffffffffffff1673ffffffffffffffffffffffffffffffffffffffff163373ffffffffffffffffffffffffffffffffffffffff161461034e576040517f08c379a0000000000000000000000000000000000000000000000000000000008152600401610345906105f7565b60405180910390fd5b600160008373ffffffffffffffffffffffffffffffffffffffff1673ffffffffffffffffffffffffffffffffffffffff16815260200190815260200160002060009054906101000a900460ff169050919050565b60008060009054906101000a900473ffffffffffffffffffffffffffffffffffffffff1673ffffffffffffffffffffffffffffffffffffffff163373ffffffffffffffffffffffffffffffffffffffff1614610433576040517f08c379a000000000000000000000000000000000000000000000000000000000815260040161042a906105f7565b60405180910390fd5b600254905090565b600080823b905060008163ffffffff1611915050919050565b600080fd5b600073ffffffffffffffffffffffffffffffffffffffff82169050919050565b600061048482610459565b9050919050565b61049481610479565b811461049f57600080fd5b50565b6000813590506104b18161048b565b92915050565b6000602082840312156104cd576104cc610454565b5b60006104db848285016104a2565b91505092915050565b60008115159050919050565b6104f9816104e4565b82525050565b600060208201905061051460008301846104f0565b92915050565b6000819050919050565b61052d8161051a565b82525050565b60006020820190506105486000830184610524565b92915050565b600082825260208201905092915050565b7f4f7065726174696f6e2064656e6965642e204f6e6c7920656c656374696f6e2060008201527f736d61727420636f6e74726163742063616e2063616c6c20746869732066756e60208201527f6374696f6e2e0000000000000000000000000000000000000000000000000000604082015250565b60006105e160468361054e565b91506105ec8261055f565b606082019050919050565b60006020820190508181036000830152610610816105d4565b9050919050565b7f4f7065726174696f6e2064656e6965642e204f6e6c792065787465726e616c6c60008201527f79206f776e6564206163636f756e74732063616e20726567697374657220696e60208201527f207468697320656c656374696f6e2e0000000000000000000000000000000000604082015250565b6000610699604f8361054e565b91506106a482610617565b606082019050919050565b600060208201905081810360008301526106c88161068c565b9050919050565b7f4f7065726174696f6e2064656e6965642e20596f752061726520616c7265616460008201527f79207265676973746572656420696e207468697320656c656374696f6e2e0000602082015250565b600061072b603e8361054e565b9150610736826106cf565b604082019050919050565b6000602082019050818103600083015261075a8161071e565b9050919050565b7f4e487b7100000000000000000000000000000000000000000000000000000000600052601160045260246000fd5b600061079b8261051a565b91507fffffffffffffffffffffffffffffffffffffffffffffffffffffffffffffffff82036107cd576107cc610761565b5b600182019050919050565b6107e181610479565b82525050565b60006020820190506107fc60008301846107d8565b9291505056fea2646970667358221220cce7cfe332ec74aa3474e33ec470f289d6c2056fbe4d243f6868de07233315b064736f6c634300080d0033",
  "immutableReferences": {},
  "source": "// SPDX-License-Identifier: MIT \npragma solidity ^0.8.13;\n\ncontract Registration {\n  address private electionContractAddress;\n  mapping(address => bool) isRegistered;\n  uint private participantCount;\n\n  /// @dev This emits when a new participant is registered in the election.\n  event Register(address newParticipant);\n\n  modifier onlyElectionContractCanCall() {\n    require(msg.sender == electionContractAddress, \"Operation denied. Only election smart contract can call this function.\");\n    _;\n  }\n\n  constructor(address electionContractAddressParam) {\n    electionContractAddress = electionContractAddressParam;\n    participantCount = 0;\n  }\n\n  function register(address registree) onlyElectionContractCanCall external {\n    require(!isContract(registree), \"Operation denied. Only externally owned accounts can register in this election.\");\n    require(!isRegistered[registree], \"Operation denied. You are already registered in this election.\");\n\n    // Identity verification...\n\n    isRegistered[registree] = true;\n    participantCount++;\n    emit Register(registree);\n  }\n\n  function isParticipantRegistered(address participantAddress) onlyElectionContractCanCall public view returns (bool) {\n    return isRegistered[participantAddress];\n  }\n\n  function getParticipantCount() onlyElectionContractCanCall external view returns (uint) {\n    return participantCount;\n  }\n\n  function isContract(address account) private view returns (bool) {\n    uint32 size;\n    assembly {\n      size := extcodesize(account)\n    }\n    return size > 0;\n  }\n}",
  "sourcePath": "/home/ariphael/dapp_project/contracts/Registration.sol",
  "compiler": {
    "name": "solc",
    "version": "0.8.13+commit.abaa5c0e.Emscripten.clang"
  },
  "schemaVersion": "3.4.16",
  "updatedAt": "2024-01-30T05:27:17.517Z",
  "networkType": "ethereum",
  "devdoc": {
    "events": {
      "Register(address)": {
        "details": "This emits when a new participant is registered in the election."
      }
    },
    "kind": "dev",
    "methods": {},
    "version": 1
  },
  "userdoc": {
    "kind": "user",
    "methods": {},
    "version": 1
  }
}